{
  "contractName": "BasicTokenMock",
  "abi": [
    {
      "constant": false,
      "inputs": [
        {
          "name": "_spender",
          "type": "address"
        },
        {
          "name": "_value",
          "type": "uint256"
        }
      ],
      "name": "approve",
      "outputs": [
        {
          "name": "",
          "type": "bool"
        }
      ],
      "payable": false,
      "stateMutability": "nonpayable",
      "type": "function"
    },
    {
      "constant": true,
      "inputs": [],
      "name": "totalSupply",
      "outputs": [
        {
          "name": "",
          "type": "uint256"
        }
      ],
      "payable": false,
      "stateMutability": "view",
      "type": "function"
    },
    {
      "constant": false,
      "inputs": [
        {
          "name": "_from",
          "type": "address"
        },
        {
          "name": "_to",
          "type": "address"
        },
        {
          "name": "_value",
          "type": "uint256"
        }
      ],
      "name": "transferFrom",
      "outputs": [
        {
          "name": "",
          "type": "bool"
        }
      ],
      "payable": false,
      "stateMutability": "nonpayable",
      "type": "function"
    },
    {
      "constant": false,
      "inputs": [
        {
          "name": "_spender",
          "type": "address"
        },
        {
          "name": "_subtractedValue",
          "type": "uint256"
        }
      ],
      "name": "decreaseApproval",
      "outputs": [
        {
          "name": "",
          "type": "bool"
        }
      ],
      "payable": false,
      "stateMutability": "nonpayable",
      "type": "function"
    },
    {
      "constant": true,
      "inputs": [
        {
          "name": "_owner",
          "type": "address"
        }
      ],
      "name": "balanceOf",
      "outputs": [
        {
          "name": "",
          "type": "uint256"
        }
      ],
      "payable": false,
      "stateMutability": "view",
      "type": "function"
    },
    {
      "constant": false,
      "inputs": [
        {
          "name": "_to",
          "type": "address"
        },
        {
          "name": "_value",
          "type": "uint256"
        }
      ],
      "name": "transfer",
      "outputs": [
        {
          "name": "",
          "type": "bool"
        }
      ],
      "payable": false,
      "stateMutability": "nonpayable",
      "type": "function"
    },
    {
      "constant": false,
      "inputs": [
        {
          "name": "_spender",
          "type": "address"
        },
        {
          "name": "_addedValue",
          "type": "uint256"
        }
      ],
      "name": "increaseApproval",
      "outputs": [
        {
          "name": "",
          "type": "bool"
        }
      ],
      "payable": false,
      "stateMutability": "nonpayable",
      "type": "function"
    },
    {
      "constant": true,
      "inputs": [
        {
          "name": "_owner",
          "type": "address"
        },
        {
          "name": "_spender",
          "type": "address"
        }
      ],
      "name": "allowance",
      "outputs": [
        {
          "name": "",
          "type": "uint256"
        }
      ],
      "payable": false,
      "stateMutability": "view",
      "type": "function"
    },
    {
      "inputs": [
        {
          "name": "initialAccount",
          "type": "address"
        },
        {
          "name": "initialBalance",
          "type": "uint256"
        }
      ],
      "payable": false,
      "stateMutability": "nonpayable",
      "type": "constructor"
    },
    {
      "anonymous": false,
      "inputs": [
        {
          "indexed": true,
          "name": "owner",
          "type": "address"
        },
        {
          "indexed": true,
          "name": "spender",
          "type": "address"
        },
        {
          "indexed": false,
          "name": "value",
          "type": "uint256"
        }
      ],
      "name": "Approval",
      "type": "event"
    },
    {
      "anonymous": false,
      "inputs": [
        {
          "indexed": true,
          "name": "from",
          "type": "address"
        },
        {
          "indexed": true,
          "name": "to",
          "type": "address"
        },
        {
          "indexed": false,
          "name": "value",
          "type": "uint256"
        }
      ],
      "name": "Transfer",
      "type": "event"
    },
    {
      "constant": false,
      "inputs": [
        {
          "name": "amount",
          "type": "uint32"
        }
      ],
      "name": "createTokenVault",
      "outputs": [],
      "payable": false,
      "stateMutability": "nonpayable",
      "type": "function"
    },
    {
      "constant": false,
      "inputs": [],
      "name": "fillUpAllowance",
      "outputs": [],
      "payable": false,
      "stateMutability": "nonpayable",
      "type": "function"
    }
  ],
  "bytecode": "0x608060405234801561001057600080fd5b50604051604080610b0d8339810160409081528151602092830151600160a060020a039091166000908152928390529120819055600155610ab7806100566000396000f3006080604052600436106100a35763ffffffff7c0100000000000000000000000000000000000000000000000000000000600035041663095ea7b381146100a857806312d60f86146100e057806318160ddd146100f757806323b872dd1461011e578063661884631461014857806370a082311461016c578063a9059cbb1461018d578063d73dd623146101b1578063dd62ed3e146101d5578063f69f7cab146101fc575b600080fd5b3480156100b457600080fd5b506100cc600160a060020a036004351660243561021a565b604080519115158252519081900360200190f35b3480156100ec57600080fd5b506100f5610280565b005b34801561010357600080fd5b5061010c610306565b60408051918252519081900360200190f35b34801561012a57600080fd5b506100cc600160a060020a036004358116906024351660443561030c565b34801561015457600080fd5b506100cc600160a060020a0360043516602435610483565b34801561017857600080fd5b5061010c600160a060020a0360043516610573565b34801561019957600080fd5b506100cc600160a060020a036004351660243561058e565b3480156101bd57600080fd5b506100cc600160a060020a036004351660243561066f565b3480156101e157600080fd5b5061010c600160a060020a0360043581169060243516610708565b34801561020857600080fd5b506100f563ffffffff60043516610733565b336000818152600260209081526040808320600160a060020a038716808552908352818420869055815186815291519394909390927f8c5be1e5ebec7d5bd14f71427d1e84f3dd0314c0f7b2291e5b200ac8c7c3b925928290030190a350600192915050565b600360009054906101000a9004600160a060020a0316600160a060020a03166312d60f866040518163ffffffff167c0100000000000000000000000000000000000000000000000000000000028152600401600060405180830381600087803b1580156102ec57600080fd5b505af1158015610300573d6000803e3d6000fd5b50505050565b60015490565b6000600160a060020a038316151561032357600080fd5b600160a060020a03841660009081526020819052604090205482111561034857600080fd5b600160a060020a038416600090815260026020908152604080832033845290915290205482111561037857600080fd5b600160a060020a0384166000908152602081905260409020546103a1908363ffffffff6107bc16565b600160a060020a0380861660009081526020819052604080822093909355908516815220546103d6908363ffffffff6107ce16565b600160a060020a03808516600090815260208181526040808320949094559187168152600282528281203382529091522054610418908363ffffffff6107bc16565b600160a060020a03808616600081815260026020908152604080832033845282529182902094909455805186815290519287169391927fddf252ad1be2c89b69c2b068fc378daa952ba7f163c4a11628f55a4df523b3ef929181900390910190a35060019392505050565b336000908152600260209081526040808320600160a060020a0386168452909152812054808311156104d857336000908152600260209081526040808320600160a060020a038816845290915281205561050d565b6104e8818463ffffffff6107bc16565b336000908152600260209081526040808320600160a060020a03891684529091529020555b336000818152600260209081526040808320600160a060020a0389168085529083529281902054815190815290519293927f8c5be1e5ebec7d5bd14f71427d1e84f3dd0314c0f7b2291e5b200ac8c7c3b925929181900390910190a35060019392505050565b600160a060020a031660009081526020819052604090205490565b6000600160a060020a03831615156105a557600080fd5b336000908152602081905260409020548211156105c157600080fd5b336000908152602081905260409020546105e1908363ffffffff6107bc16565b3360009081526020819052604080822092909255600160a060020a03851681522054610613908363ffffffff6107ce16565b600160a060020a038416600081815260208181526040918290209390935580518581529051919233927fddf252ad1be2c89b69c2b068fc378daa952ba7f163c4a11628f55a4df523b3ef9281900390910190a350600192915050565b336000908152600260209081526040808320600160a060020a03861684529091528120546106a3908363ffffffff6107ce16565b336000818152600260209081526040808320600160a060020a0389168085529083529281902085905580519485525191937f8c5be1e5ebec7d5bd14f71427d1e84f3dd0314c0f7b2291e5b200ac8c7c3b925929081900390910190a350600192915050565b600160a060020a03918216600090815260026020908152604080832093909416825291909152205490565b3061073c6107e1565b600160a060020a03909116815260405190819003602001906000f080158015610769573d6000803e3d6000fd5b506003805473ffffffffffffffffffffffffffffffffffffffff1916600160a060020a03928316179081905516600090815260208190526040902063ffffffff9190911690819055600180549091019055565b6000828211156107c857fe5b50900390565b818101828110156107db57fe5b92915050565b60405161029a806107f2833901905600608060405234801561001057600080fd5b5060405160208061029a833981016040525160008054600160a060020a03909216600160a060020a0319909216919091179055610248806100526000396000f30060806040526004361061004b5763ffffffff7c010000000000000000000000000000000000000000000000000000000060003504166312d60f868114610050578063fc0c546a14610067575b600080fd5b34801561005c57600080fd5b506100656100a5565b005b34801561007357600080fd5b5061007c610200565b6040805173ffffffffffffffffffffffffffffffffffffffff9092168252519081900360200190f35b60008054604080517f70a08231000000000000000000000000000000000000000000000000000000008152306004820152905173ffffffffffffffffffffffffffffffffffffffff909216916370a082319160248082019260209290919082900301818787803b15801561011857600080fd5b505af115801561012c573d6000803e3d6000fd5b505050506040513d602081101561014257600080fd5b505190506000811161015357600080fd5b60008054604080517f095ea7b300000000000000000000000000000000000000000000000000000000815273ffffffffffffffffffffffffffffffffffffffff90921660048301819052602483018590529051909263095ea7b392604480820193602093909283900390910190829087803b1580156101d157600080fd5b505af11580156101e5573d6000803e3d6000fd5b505050506040513d60208110156101fb57600080fd5b505050565b60005473ffffffffffffffffffffffffffffffffffffffff16815600a165627a7a7230582051a22c0b4950de51e45d2b916904359c176e8e454873b20012677c7b6f8f4c5f0029a165627a7a7230582079f9c8762a517e1ecf6efb345d013ceb539b7417fffaa3c8022286670fd272d70029",
  "source": "pragma solidity ^0.4.23;\n\n\nimport \"../TokenVault.sol\";\nimport \"openzeppelin-solidity/contracts/token/ERC20/StandardToken.sol\";\n\n\n// mock class using BasicToken\ncontract BasicTokenMock is StandardToken {\n\n    TokenVault tv;\n\n    constructor(address initialAccount, uint256 initialBalance) public {\n        balances[initialAccount] = initialBalance;\n        totalSupply_ = initialBalance;\n    }\n\n    function createTokenVault(uint32 amount) public {\n        tv = new TokenVault(ERC20(this));\n        balances[tv] = amount;\n        totalSupply_ += amount;\n    }\n\n    function fillUpAllowance() public {\n        tv.fillUpAllowance();\n    }\n}\n",
  "sourcePath": "/home/cleduc/src/urbit/contracts/mocks/BasicTokenMock.sol",
  "compiler": {
    "name": "solc",
    "version": "0.4.24+commit.e67f0147.Emscripten.clang"
  },
  "schemaVersion": "2.0.0",
  "updatedAt": "2018-07-11T20:04:40.036Z"
}