{
  "contractName": "PresaleTokenVesting",
  "abi": [
    {
      "constant": true,
      "inputs": [],
      "name": "duration",
      "outputs": [
        {
          "name": "",
          "type": "uint256"
        }
      ],
      "payable": false,
      "stateMutability": "view",
      "type": "function"
    },
    {
      "constant": true,
      "inputs": [],
      "name": "cliff",
      "outputs": [
        {
          "name": "",
          "type": "uint256"
        }
      ],
      "payable": false,
      "stateMutability": "view",
      "type": "function"
    },
    {
      "constant": true,
      "inputs": [
        {
          "name": "token",
          "type": "address"
        }
      ],
      "name": "releasableAmount",
      "outputs": [
        {
          "name": "",
          "type": "uint256"
        }
      ],
      "payable": false,
      "stateMutability": "view",
      "type": "function"
    },
    {
      "constant": false,
      "inputs": [
        {
          "name": "token",
          "type": "address"
        }
      ],
      "name": "release",
      "outputs": [],
      "payable": false,
      "stateMutability": "nonpayable",
      "type": "function"
    },
    {
      "constant": true,
      "inputs": [],
      "name": "beneficiary",
      "outputs": [
        {
          "name": "",
          "type": "address"
        }
      ],
      "payable": false,
      "stateMutability": "view",
      "type": "function"
    },
    {
      "constant": false,
      "inputs": [
        {
          "name": "token",
          "type": "address"
        }
      ],
      "name": "revoke",
      "outputs": [],
      "payable": false,
      "stateMutability": "nonpayable",
      "type": "function"
    },
    {
      "constant": true,
      "inputs": [],
      "name": "revocable",
      "outputs": [
        {
          "name": "",
          "type": "bool"
        }
      ],
      "payable": false,
      "stateMutability": "view",
      "type": "function"
    },
    {
      "constant": true,
      "inputs": [],
      "name": "owner",
      "outputs": [
        {
          "name": "",
          "type": "address"
        }
      ],
      "payable": false,
      "stateMutability": "view",
      "type": "function"
    },
    {
      "constant": true,
      "inputs": [
        {
          "name": "",
          "type": "address"
        }
      ],
      "name": "released",
      "outputs": [
        {
          "name": "",
          "type": "uint256"
        }
      ],
      "payable": false,
      "stateMutability": "view",
      "type": "function"
    },
    {
      "constant": true,
      "inputs": [],
      "name": "start",
      "outputs": [
        {
          "name": "",
          "type": "uint256"
        }
      ],
      "payable": false,
      "stateMutability": "view",
      "type": "function"
    },
    {
      "constant": false,
      "inputs": [
        {
          "name": "newOwner",
          "type": "address"
        }
      ],
      "name": "transferOwnership",
      "outputs": [],
      "payable": false,
      "stateMutability": "nonpayable",
      "type": "function"
    },
    {
      "constant": true,
      "inputs": [
        {
          "name": "",
          "type": "address"
        }
      ],
      "name": "revoked",
      "outputs": [
        {
          "name": "",
          "type": "bool"
        }
      ],
      "payable": false,
      "stateMutability": "view",
      "type": "function"
    },
    {
      "inputs": [
        {
          "name": "_beneficiary",
          "type": "address"
        },
        {
          "name": "_duration",
          "type": "uint256"
        }
      ],
      "payable": false,
      "stateMutability": "nonpayable",
      "type": "constructor"
    },
    {
      "anonymous": false,
      "inputs": [
        {
          "indexed": false,
          "name": "amount",
          "type": "uint256"
        }
      ],
      "name": "Released",
      "type": "event"
    },
    {
      "anonymous": false,
      "inputs": [],
      "name": "Revoked",
      "type": "event"
    },
    {
      "anonymous": false,
      "inputs": [
        {
          "indexed": true,
          "name": "previousOwner",
          "type": "address"
        },
        {
          "indexed": true,
          "name": "newOwner",
          "type": "address"
        }
      ],
      "name": "OwnershipTransferred",
      "type": "event"
    },
    {
      "constant": true,
      "inputs": [
        {
          "name": "token",
          "type": "address"
        }
      ],
      "name": "vestedAmount",
      "outputs": [
        {
          "name": "",
          "type": "uint256"
        }
      ],
      "payable": false,
      "stateMutability": "view",
      "type": "function"
    }
  ],
  "bytecode": "0x608060405234801561001057600080fd5b506040516040806109a583398101604052805160209091015160008054600160a060020a031916331781558290828082600160a060020a038516151561005557600080fd5b8183111561006257600080fd5b60018054600160a060020a031916600160a060020a0387161790556005805460ff191682151517905560048290556100a784846401000000006100b981026107b71704565b600255505050600355506100cc915050565b818101828110156100c657fe5b92915050565b6108ca806100db6000396000f3006080604052600436106100ab5763ffffffff60e060020a6000350416630fb5a6b481146100b057806313d033c0146100d75780631726cbc8146100ec578063191655871461010d578063384711cc1461013057806338af3eed1461015157806374a8f10314610182578063872a7810146101a35780638da5cb5b146101cc5780639852595c146101e1578063be9a655514610202578063f2fde38b14610217578063fa01dc0614610238575b600080fd5b3480156100bc57600080fd5b506100c5610259565b60408051918252519081900360200190f35b3480156100e357600080fd5b506100c561025f565b3480156100f857600080fd5b506100c5600160a060020a0360043516610265565b34801561011957600080fd5b5061012e600160a060020a036004351661029d565b005b34801561013c57600080fd5b506100c5600160a060020a0360043516610349565b34801561015d57600080fd5b50610166610556565b60408051600160a060020a039092168252519081900360200190f35b34801561018e57600080fd5b5061012e600160a060020a0360043516610565565b3480156101af57600080fd5b506101b86106cc565b604080519115158252519081900360200190f35b3480156101d857600080fd5b506101666106d5565b3480156101ed57600080fd5b506100c5600160a060020a03600435166106e4565b34801561020e57600080fd5b506100c56106f6565b34801561022357600080fd5b5061012e600160a060020a03600435166106fc565b34801561024457600080fd5b506101b8600160a060020a0360043516610790565b60045481565b60025481565b600160a060020a0381166000908152600660205260408120546102979061028b84610349565b9063ffffffff6107a516565b92915050565b60006102a882610265565b9050600081116102b757600080fd5b600160a060020a0382166000908152600660205260409020546102e0908263ffffffff6107b716565b600160a060020a038084166000818152600660205260409020929092556001546103129291168363ffffffff6107c416565b6040805182815290517ffb81f9b30d73d830c3544b34d827c08142579ee75710b490bab0b3995468c5659181900360200190a15050565b600080600080600085935083600160a060020a031663b8c766b86040518163ffffffff1660e060020a028152600401602060405180830381600087803b15801561039257600080fd5b505af11580156103a6573d6000803e3d6000fd5b505050506040513d60208110156103bc57600080fd5b505115156103cd576000945061054d565b604080517f70a082310000000000000000000000000000000000000000000000000000000081523060048201529051600160a060020a038816916370a082319160248083019260209291908290030181600087803b15801561042e57600080fd5b505af1158015610442573d6000803e3d6000fd5b505050506040513d602081101561045857600080fd5b5051600160a060020a03871660009081526006602052604090205490935061048790849063ffffffff6107b716565b915083600160a060020a03166348a50a546040518163ffffffff1660e060020a028152600401602060405180830381600087803b1580156104c757600080fd5b505af11580156104db573d6000803e3d6000fd5b505050506040513d60208110156104f157600080fd5b5051600454909150610509908263ffffffff6107b716565b42106105175781945061054d565b60045461054a9061053e610531428563ffffffff6107a516565b859063ffffffff61086016565b9063ffffffff61088916565b94505b50505050919050565b600154600160a060020a031681565b6000805481908190600160a060020a0316331461058157600080fd5b60055460ff16151561059257600080fd5b600160a060020a03841660009081526007602052604090205460ff16156105b857600080fd5b604080517f70a082310000000000000000000000000000000000000000000000000000000081523060048201529051600160a060020a038616916370a082319160248083019260209291908290030181600087803b15801561061957600080fd5b505af115801561062d573d6000803e3d6000fd5b505050506040513d602081101561064357600080fd5b5051925061065084610265565b9150610662838363ffffffff6107a516565b600160a060020a038086166000818152600760205260408120805460ff191660011790555492935061069d929091168363ffffffff6107c416565b6040517f44825a4b2df8acb19ce4e1afba9aa850c8b65cdb7942e2078f27d0b0960efee690600090a150505050565b60055460ff1681565b600054600160a060020a031681565b60066020526000908152604090205481565b60035481565b600054600160a060020a0316331461071357600080fd5b600160a060020a038116151561072857600080fd5b60008054604051600160a060020a03808516939216917f8be0079c531659141344cd1fd0a4f28419497f9722a3daafe3b4186f6b6457e091a36000805473ffffffffffffffffffffffffffffffffffffffff1916600160a060020a0392909216919091179055565b60076020526000908152604090205460ff1681565b6000828211156107b157fe5b50900390565b8181018281101561029757fe5b82600160a060020a031663a9059cbb83836040518363ffffffff1660e060020a0281526004018083600160a060020a0316600160a060020a0316815260200182815260200192505050602060405180830381600087803b15801561082757600080fd5b505af115801561083b573d6000803e3d6000fd5b505050506040513d602081101561085157600080fd5b5051151561085b57fe5b505050565b600082151561087157506000610297565b5081810281838281151561088157fe5b041461029757fe5b6000818381151561089657fe5b0493925050505600a165627a7a72305820cbfb05bf86dc82d10cdbc28084b79ff099236bf24d37053f6befa3acc4f25a8f0029",
  "source": "pragma solidity ^0.4.21;\n\nimport \"openzeppelin-solidity/contracts/token/ERC20/TokenVesting.sol\";\nimport \"./UrbitToken.sol\";\n\n\n/**\n * @title PresaleTokenVesting\n * @dev PresaleTokenVesting allows for vesting periods which begin at\n * the time the token sale ends.\n */\ncontract PresaleTokenVesting is TokenVesting {\n\n    function PresaleTokenVesting(address _beneficiary, uint256 _duration) TokenVesting(_beneficiary, 0, _duration, _duration, false) public {\n    }\n\n    function vestedAmount(ERC20Basic token) public view returns (uint256) {\n        UrbitToken urbit = UrbitToken(token); \n        if (!urbit.saleClosed()) {\n            return(0);\n        } else {\n            uint256 currentBalance = token.balanceOf(this);\n            uint256 totalBalance = currentBalance.add(released[token]);\n            uint256 saleClosedTime = urbit.saleClosedTimestamp();\n            if (block.timestamp >= duration.add(saleClosedTime)) { // solium-disable-line security/no-block-members\n                return totalBalance;\n            } else {\n                return totalBalance.mul(block.timestamp.sub(saleClosedTime)).div(duration); // solium-disable-line security/no-block-members\n\n            }\n        }\n    }\n}\n",
  "sourcePath": "/home/cleduc/src/urbit/contracts/PresaleTokenVesting.sol",
  "compiler": {
    "name": "solc",
    "version": "0.4.24+commit.e67f0147.Emscripten.clang"
  },
  "schemaVersion": "2.0.1",
  "updatedAt": "2018-06-29T17:53:24.818Z"
}