{
  "contractName": "TokenVault",
  "abi": [
    {
      "constant": true,
      "inputs": [],
      "name": "token",
      "outputs": [
        {
          "name": "",
          "type": "address"
        }
      ],
      "payable": false,
      "stateMutability": "view",
      "type": "function"
    },
    {
      "inputs": [
        {
          "name": "_token",
          "type": "address"
        }
      ],
      "payable": false,
      "stateMutability": "nonpayable",
      "type": "constructor"
    },
    {
      "constant": false,
      "inputs": [],
      "name": "fillUpAllowance",
      "outputs": [],
      "payable": false,
      "stateMutability": "nonpayable",
      "type": "function"
    }
  ],
  "bytecode": "0x608060405234801561001057600080fd5b5060405160208061029a833981016040525160008054600160a060020a03909216600160a060020a0319909216919091179055610248806100526000396000f30060806040526004361061004b5763ffffffff7c010000000000000000000000000000000000000000000000000000000060003504166312d60f868114610050578063fc0c546a14610067575b600080fd5b34801561005c57600080fd5b506100656100a5565b005b34801561007357600080fd5b5061007c610200565b6040805173ffffffffffffffffffffffffffffffffffffffff9092168252519081900360200190f35b60008054604080517f70a08231000000000000000000000000000000000000000000000000000000008152306004820152905173ffffffffffffffffffffffffffffffffffffffff909216916370a082319160248082019260209290919082900301818787803b15801561011857600080fd5b505af115801561012c573d6000803e3d6000fd5b505050506040513d602081101561014257600080fd5b505190506000811161015357600080fd5b60008054604080517f095ea7b300000000000000000000000000000000000000000000000000000000815273ffffffffffffffffffffffffffffffffffffffff90921660048301819052602483018590529051909263095ea7b392604480820193602093909283900390910190829087803b1580156101d157600080fd5b505af11580156101e5573d6000803e3d6000fd5b505050506040513d60208110156101fb57600080fd5b505050565b60005473ffffffffffffffffffffffffffffffffffffffff16815600a165627a7a723058202bfa62ee38c281890e875eca316ef27bd61689576e6c80f47775ff21bfea65fd0029",
  "source": "pragma solidity ^0.4.21;\n\nimport \"openzeppelin-solidity/contracts/token/ERC20/SafeERC20.sol\";\nimport \"./UrbitToken.sol\";\n\n\n/**\n * @title TokenVault\n * @dev TokenVault is a token holder contract that will allow a\n * beneficiary to spend the tokens from some function of a specified ERC20 token\n */\ncontract TokenVault {\n    using SafeERC20 for ERC20;\n\n    // ERC20 token contract being held\n    ERC20 public token;\n\n    function TokenVault(ERC20 _token) public {\n        token = _token;\n    }\n\n    /**\n     * @notice Allow the token itself to send tokens\n     * using transferFrom().\n     */\n    function fillUpAllowance() public {\n        uint256 amount = token.balanceOf(this);\n        require(amount > 0);\n\n        token.approve(token, amount);\n    }\n}\n",
  "sourcePath": "/home/cleduc/src/urbit/contracts/TokenVault.sol",
  "compiler": {
    "name": "solc",
    "version": "0.4.24+commit.e67f0147.Emscripten.clang"
  },
  "schemaVersion": "2.0.0",
  "updatedAt": "2018-08-01T23:36:44.236Z"
}