{
  "contractName": "TokenVesting",
  "abi": [
    {
      "constant": true,
      "inputs": [],
      "name": "duration",
      "outputs": [
        {
          "name": "",
          "type": "uint256"
        }
      ],
      "payable": false,
      "stateMutability": "view",
      "type": "function"
    },
    {
      "constant": true,
      "inputs": [],
      "name": "cliff",
      "outputs": [
        {
          "name": "",
          "type": "uint256"
        }
      ],
      "payable": false,
      "stateMutability": "view",
      "type": "function"
    },
    {
      "constant": true,
      "inputs": [],
      "name": "beneficiary",
      "outputs": [
        {
          "name": "",
          "type": "address"
        }
      ],
      "payable": false,
      "stateMutability": "view",
      "type": "function"
    },
    {
      "constant": true,
      "inputs": [],
      "name": "revocable",
      "outputs": [
        {
          "name": "",
          "type": "bool"
        }
      ],
      "payable": false,
      "stateMutability": "view",
      "type": "function"
    },
    {
      "constant": true,
      "inputs": [],
      "name": "owner",
      "outputs": [
        {
          "name": "",
          "type": "address"
        }
      ],
      "payable": false,
      "stateMutability": "view",
      "type": "function"
    },
    {
      "constant": true,
      "inputs": [
        {
          "name": "",
          "type": "address"
        }
      ],
      "name": "released",
      "outputs": [
        {
          "name": "",
          "type": "uint256"
        }
      ],
      "payable": false,
      "stateMutability": "view",
      "type": "function"
    },
    {
      "constant": true,
      "inputs": [],
      "name": "start",
      "outputs": [
        {
          "name": "",
          "type": "uint256"
        }
      ],
      "payable": false,
      "stateMutability": "view",
      "type": "function"
    },
    {
      "constant": false,
      "inputs": [
        {
          "name": "newOwner",
          "type": "address"
        }
      ],
      "name": "transferOwnership",
      "outputs": [],
      "payable": false,
      "stateMutability": "nonpayable",
      "type": "function"
    },
    {
      "constant": true,
      "inputs": [
        {
          "name": "",
          "type": "address"
        }
      ],
      "name": "revoked",
      "outputs": [
        {
          "name": "",
          "type": "bool"
        }
      ],
      "payable": false,
      "stateMutability": "view",
      "type": "function"
    },
    {
      "inputs": [
        {
          "name": "_beneficiary",
          "type": "address"
        },
        {
          "name": "_start",
          "type": "uint256"
        },
        {
          "name": "_cliff",
          "type": "uint256"
        },
        {
          "name": "_duration",
          "type": "uint256"
        },
        {
          "name": "_revocable",
          "type": "bool"
        }
      ],
      "payable": false,
      "stateMutability": "nonpayable",
      "type": "constructor"
    },
    {
      "anonymous": false,
      "inputs": [
        {
          "indexed": false,
          "name": "amount",
          "type": "uint256"
        }
      ],
      "name": "Released",
      "type": "event"
    },
    {
      "anonymous": false,
      "inputs": [],
      "name": "Revoked",
      "type": "event"
    },
    {
      "anonymous": false,
      "inputs": [
        {
          "indexed": true,
          "name": "previousOwner",
          "type": "address"
        },
        {
          "indexed": true,
          "name": "newOwner",
          "type": "address"
        }
      ],
      "name": "OwnershipTransferred",
      "type": "event"
    },
    {
      "constant": false,
      "inputs": [
        {
          "name": "token",
          "type": "address"
        }
      ],
      "name": "release",
      "outputs": [],
      "payable": false,
      "stateMutability": "nonpayable",
      "type": "function"
    },
    {
      "constant": false,
      "inputs": [
        {
          "name": "token",
          "type": "address"
        }
      ],
      "name": "revoke",
      "outputs": [],
      "payable": false,
      "stateMutability": "nonpayable",
      "type": "function"
    },
    {
      "constant": true,
      "inputs": [
        {
          "name": "token",
          "type": "address"
        }
      ],
      "name": "releasableAmount",
      "outputs": [
        {
          "name": "",
          "type": "uint256"
        }
      ],
      "payable": false,
      "stateMutability": "view",
      "type": "function"
    },
    {
      "constant": true,
      "inputs": [
        {
          "name": "token",
          "type": "address"
        }
      ],
      "name": "vestedAmount",
      "outputs": [
        {
          "name": "",
          "type": "uint256"
        }
      ],
      "payable": false,
      "stateMutability": "view",
      "type": "function"
    }
  ],
  "bytecode": "0x608060405234801561001057600080fd5b5060405160a0806108fb8339810160409081528151602083015191830151606084015160809094015160008054600160a060020a0319163317905591939091600160a060020a038516151561006457600080fd5b8183111561007157600080fd5b60018054600160a060020a031916600160a060020a0387161790556005805460ff191682151517905560048290556100b684846401000000006100c581026107011704565b600255505050600355506100d8565b818101828110156100d257fe5b92915050565b610814806100e76000396000f3006080604052600436106100ab5763ffffffff60e060020a6000350416630fb5a6b481146100b057806313d033c0146100d75780631726cbc8146100ec578063191655871461010d578063384711cc1461013057806338af3eed1461015157806374a8f10314610182578063872a7810146101a35780638da5cb5b146101cc5780639852595c146101e1578063be9a655514610202578063f2fde38b14610217578063fa01dc0614610238575b600080fd5b3480156100bc57600080fd5b506100c5610259565b60408051918252519081900360200190f35b3480156100e357600080fd5b506100c561025f565b3480156100f857600080fd5b506100c5600160a060020a0360043516610265565b34801561011957600080fd5b5061012e600160a060020a036004351661029d565b005b34801561013c57600080fd5b506100c5600160a060020a0360043516610349565b34801561015d57600080fd5b506101666104a0565b60408051600160a060020a039092168252519081900360200190f35b34801561018e57600080fd5b5061012e600160a060020a03600435166104af565b3480156101af57600080fd5b506101b8610616565b604080519115158252519081900360200190f35b3480156101d857600080fd5b5061016661061f565b3480156101ed57600080fd5b506100c5600160a060020a036004351661062e565b34801561020e57600080fd5b506100c5610640565b34801561022357600080fd5b5061012e600160a060020a0360043516610646565b34801561024457600080fd5b506101b8600160a060020a03600435166106da565b60045481565b60025481565b600160a060020a0381166000908152600660205260408120546102979061028b84610349565b9063ffffffff6106ef16565b92915050565b60006102a882610265565b9050600081116102b757600080fd5b600160a060020a0382166000908152600660205260409020546102e0908263ffffffff61070116565b600160a060020a038084166000818152600660205260409020929092556001546103129291168363ffffffff61070e16565b6040805182815290517ffb81f9b30d73d830c3544b34d827c08142579ee75710b490bab0b3995468c5659181900360200190a15050565b600080600083600160a060020a03166370a08231306040518263ffffffff1660e060020a0281526004018082600160a060020a0316600160a060020a03168152602001915050602060405180830381600087803b1580156103a957600080fd5b505af11580156103bd573d6000803e3d6000fd5b505050506040513d60208110156103d357600080fd5b5051600160a060020a03851660009081526006602052604090205490925061040290839063ffffffff61070116565b90506002544210156104175760009250610499565b60045460035461042c9163ffffffff61070116565b421015806104525750600160a060020a03841660009081526007602052604090205460ff165b1561045f57809250610499565b61049660045461048a61047d600354426106ef90919063ffffffff16565b849063ffffffff6107aa16565b9063ffffffff6107d316565b92505b5050919050565b600154600160a060020a031681565b6000805481908190600160a060020a031633146104cb57600080fd5b60055460ff1615156104dc57600080fd5b600160a060020a03841660009081526007602052604090205460ff161561050257600080fd5b604080517f70a082310000000000000000000000000000000000000000000000000000000081523060048201529051600160a060020a038616916370a082319160248083019260209291908290030181600087803b15801561056357600080fd5b505af1158015610577573d6000803e3d6000fd5b505050506040513d602081101561058d57600080fd5b5051925061059a84610265565b91506105ac838363ffffffff6106ef16565b600160a060020a038086166000818152600760205260408120805460ff19166001179055549293506105e7929091168363ffffffff61070e16565b6040517f44825a4b2df8acb19ce4e1afba9aa850c8b65cdb7942e2078f27d0b0960efee690600090a150505050565b60055460ff1681565b600054600160a060020a031681565b60066020526000908152604090205481565b60035481565b600054600160a060020a0316331461065d57600080fd5b600160a060020a038116151561067257600080fd5b60008054604051600160a060020a03808516939216917f8be0079c531659141344cd1fd0a4f28419497f9722a3daafe3b4186f6b6457e091a36000805473ffffffffffffffffffffffffffffffffffffffff1916600160a060020a0392909216919091179055565b60076020526000908152604090205460ff1681565b6000828211156106fb57fe5b50900390565b8181018281101561029757fe5b82600160a060020a031663a9059cbb83836040518363ffffffff1660e060020a0281526004018083600160a060020a0316600160a060020a0316815260200182815260200192505050602060405180830381600087803b15801561077157600080fd5b505af1158015610785573d6000803e3d6000fd5b505050506040513d602081101561079b57600080fd5b505115156107a557fe5b505050565b60008215156107bb57506000610297565b508181028183828115156107cb57fe5b041461029757fe5b600081838115156107e057fe5b0493925050505600a165627a7a723058203b912808ba389219e34f80a7eafe3b87073bdb93e2915516f5ef68eee3f7619c0029",
  "source": "/* solium-disable security/no-block-members */\n\npragma solidity ^0.4.21;\n\nimport \"./ERC20Basic.sol\";\nimport \"./SafeERC20.sol\";\nimport \"../../ownership/Ownable.sol\";\nimport \"../../math/SafeMath.sol\";\n\n\n/**\n * @title TokenVesting\n * @dev A token holder contract that can release its token balance gradually like a\n * typical vesting scheme, with a cliff and vesting period. Optionally revocable by the\n * owner.\n */\ncontract TokenVesting is Ownable {\n  using SafeMath for uint256;\n  using SafeERC20 for ERC20Basic;\n\n  event Released(uint256 amount);\n  event Revoked();\n\n  // beneficiary of tokens after they are released\n  address public beneficiary;\n\n  uint256 public cliff;\n  uint256 public start;\n  uint256 public duration;\n\n  bool public revocable;\n\n  mapping (address => uint256) public released;\n  mapping (address => bool) public revoked;\n\n  /**\n   * @dev Creates a vesting contract that vests its balance of any ERC20 token to the\n   * _beneficiary, gradually in a linear fashion until _start + _duration. By then all\n   * of the balance will have vested.\n   * @param _beneficiary address of the beneficiary to whom vested tokens are transferred\n   * @param _cliff duration in seconds of the cliff in which tokens will begin to vest\n   * @param _duration duration in seconds of the period in which the tokens will vest\n   * @param _revocable whether the vesting is revocable or not\n   */\n  function TokenVesting(\n    address _beneficiary,\n    uint256 _start,\n    uint256 _cliff,\n    uint256 _duration,\n    bool _revocable\n  )\n    public\n  {\n    require(_beneficiary != address(0));\n    require(_cliff <= _duration);\n\n    beneficiary = _beneficiary;\n    revocable = _revocable;\n    duration = _duration;\n    cliff = _start.add(_cliff);\n    start = _start;\n  }\n\n  /**\n   * @notice Transfers vested tokens to beneficiary.\n   * @param token ERC20 token which is being vested\n   */\n  function release(ERC20Basic token) public {\n    uint256 unreleased = releasableAmount(token);\n\n    require(unreleased > 0);\n\n    released[token] = released[token].add(unreleased);\n\n    token.safeTransfer(beneficiary, unreleased);\n\n    emit Released(unreleased);\n  }\n\n  /**\n   * @notice Allows the owner to revoke the vesting. Tokens already vested\n   * remain in the contract, the rest are returned to the owner.\n   * @param token ERC20 token which is being vested\n   */\n  function revoke(ERC20Basic token) public onlyOwner {\n    require(revocable);\n    require(!revoked[token]);\n\n    uint256 balance = token.balanceOf(this);\n\n    uint256 unreleased = releasableAmount(token);\n    uint256 refund = balance.sub(unreleased);\n\n    revoked[token] = true;\n\n    token.safeTransfer(owner, refund);\n\n    emit Revoked();\n  }\n\n  /**\n   * @dev Calculates the amount that has already vested but hasn't been released yet.\n   * @param token ERC20 token which is being vested\n   */\n  function releasableAmount(ERC20Basic token) public view returns (uint256) {\n    return vestedAmount(token).sub(released[token]);\n  }\n\n  /**\n   * @dev Calculates the amount that has already vested.\n   * @param token ERC20 token which is being vested\n   */\n  function vestedAmount(ERC20Basic token) public view returns (uint256) {\n    uint256 currentBalance = token.balanceOf(this);\n    uint256 totalBalance = currentBalance.add(released[token]);\n\n    if (block.timestamp < cliff) {\n      return 0;\n    } else if (block.timestamp >= start.add(duration) || revoked[token]) {\n      return totalBalance;\n    } else {\n      return totalBalance.mul(block.timestamp.sub(start)).div(duration);\n    }\n  }\n}\n",
  "sourcePath": "openzeppelin-solidity/contracts/token/ERC20/TokenVesting.sol",
  "compiler": {
    "name": "solc",
    "version": "0.4.24+commit.e67f0147.Emscripten.clang"
  },
  "schemaVersion": "2.0.0",
  "updatedAt": "2018-08-01T23:36:44.242Z"
}