{
  "contractName": "UrbitToken",
  "abi": [
    {
      "constant": true,
      "inputs": [],
      "name": "name",
      "outputs": [
        {
          "name": "",
          "type": "string"
        }
      ],
      "payable": false,
      "stateMutability": "view",
      "type": "function"
    },
    {
      "constant": false,
      "inputs": [
        {
          "name": "_spender",
          "type": "address"
        },
        {
          "name": "_value",
          "type": "uint256"
        }
      ],
      "name": "approve",
      "outputs": [
        {
          "name": "",
          "type": "bool"
        }
      ],
      "payable": false,
      "stateMutability": "nonpayable",
      "type": "function"
    },
    {
      "constant": true,
      "inputs": [],
      "name": "totalSupply",
      "outputs": [
        {
          "name": "",
          "type": "uint256"
        }
      ],
      "payable": false,
      "stateMutability": "view",
      "type": "function"
    },
    {
      "constant": true,
      "inputs": [],
      "name": "referralTokensVault",
      "outputs": [
        {
          "name": "",
          "type": "address"
        }
      ],
      "payable": false,
      "stateMutability": "view",
      "type": "function"
    },
    {
      "constant": true,
      "inputs": [],
      "name": "urbitTeamTokensVault",
      "outputs": [
        {
          "name": "",
          "type": "address"
        }
      ],
      "payable": false,
      "stateMutability": "view",
      "type": "function"
    },
    {
      "constant": true,
      "inputs": [],
      "name": "decimals",
      "outputs": [
        {
          "name": "",
          "type": "uint8"
        }
      ],
      "payable": false,
      "stateMutability": "view",
      "type": "function"
    },
    {
      "constant": true,
      "inputs": [],
      "name": "HARD_CAP",
      "outputs": [
        {
          "name": "",
          "type": "uint256"
        }
      ],
      "payable": false,
      "stateMutability": "view",
      "type": "function"
    },
    {
      "constant": false,
      "inputs": [
        {
          "name": "_value",
          "type": "uint256"
        }
      ],
      "name": "burn",
      "outputs": [],
      "payable": false,
      "stateMutability": "nonpayable",
      "type": "function"
    },
    {
      "constant": true,
      "inputs": [],
      "name": "saleClosedTimestamp",
      "outputs": [
        {
          "name": "",
          "type": "uint256"
        }
      ],
      "payable": false,
      "stateMutability": "view",
      "type": "function"
    },
    {
      "constant": true,
      "inputs": [],
      "name": "retainedTokensVault",
      "outputs": [
        {
          "name": "",
          "type": "address"
        }
      ],
      "payable": false,
      "stateMutability": "view",
      "type": "function"
    },
    {
      "constant": false,
      "inputs": [
        {
          "name": "_spender",
          "type": "address"
        },
        {
          "name": "_subtractedValue",
          "type": "uint256"
        }
      ],
      "name": "decreaseApproval",
      "outputs": [
        {
          "name": "",
          "type": "bool"
        }
      ],
      "payable": false,
      "stateMutability": "nonpayable",
      "type": "function"
    },
    {
      "constant": true,
      "inputs": [],
      "name": "MAGNITUDE",
      "outputs": [
        {
          "name": "",
          "type": "uint256"
        }
      ],
      "payable": false,
      "stateMutability": "view",
      "type": "function"
    },
    {
      "constant": true,
      "inputs": [
        {
          "name": "_owner",
          "type": "address"
        }
      ],
      "name": "balanceOf",
      "outputs": [
        {
          "name": "",
          "type": "uint256"
        }
      ],
      "payable": false,
      "stateMutability": "view",
      "type": "function"
    },
    {
      "constant": true,
      "inputs": [],
      "name": "symbol",
      "outputs": [
        {
          "name": "",
          "type": "string"
        }
      ],
      "payable": false,
      "stateMutability": "view",
      "type": "function"
    },
    {
      "constant": true,
      "inputs": [],
      "name": "bonusTokensVault",
      "outputs": [
        {
          "name": "",
          "type": "address"
        }
      ],
      "payable": false,
      "stateMutability": "view",
      "type": "function"
    },
    {
      "constant": true,
      "inputs": [],
      "name": "rewardsTokensVault",
      "outputs": [
        {
          "name": "",
          "type": "address"
        }
      ],
      "payable": false,
      "stateMutability": "view",
      "type": "function"
    },
    {
      "constant": true,
      "inputs": [],
      "name": "saleTokensAddress",
      "outputs": [
        {
          "name": "",
          "type": "address"
        }
      ],
      "payable": false,
      "stateMutability": "view",
      "type": "function"
    },
    {
      "constant": false,
      "inputs": [
        {
          "name": "_spender",
          "type": "address"
        },
        {
          "name": "_addedValue",
          "type": "uint256"
        }
      ],
      "name": "increaseApproval",
      "outputs": [
        {
          "name": "",
          "type": "bool"
        }
      ],
      "payable": false,
      "stateMutability": "nonpayable",
      "type": "function"
    },
    {
      "constant": true,
      "inputs": [],
      "name": "bountyTokensVault",
      "outputs": [
        {
          "name": "",
          "type": "address"
        }
      ],
      "payable": false,
      "stateMutability": "view",
      "type": "function"
    },
    {
      "constant": true,
      "inputs": [
        {
          "name": "_owner",
          "type": "address"
        },
        {
          "name": "_spender",
          "type": "address"
        }
      ],
      "name": "allowance",
      "outputs": [
        {
          "name": "",
          "type": "uint256"
        }
      ],
      "payable": false,
      "stateMutability": "view",
      "type": "function"
    },
    {
      "constant": true,
      "inputs": [
        {
          "name": "",
          "type": "address"
        },
        {
          "name": "",
          "type": "uint256"
        }
      ],
      "name": "vestingsOf",
      "outputs": [
        {
          "name": "",
          "type": "address"
        }
      ],
      "payable": false,
      "stateMutability": "view",
      "type": "function"
    },
    {
      "constant": true,
      "inputs": [],
      "name": "urbitAdminAddress",
      "outputs": [
        {
          "name": "",
          "type": "address"
        }
      ],
      "payable": false,
      "stateMutability": "view",
      "type": "function"
    },
    {
      "constant": true,
      "inputs": [],
      "name": "advisorsTokensVault",
      "outputs": [
        {
          "name": "",
          "type": "address"
        }
      ],
      "payable": false,
      "stateMutability": "view",
      "type": "function"
    },
    {
      "inputs": [
        {
          "name": "_urbitAdminAddress",
          "type": "address"
        },
        {
          "name": "_saleTokensAddress",
          "type": "address"
        }
      ],
      "payable": false,
      "stateMutability": "nonpayable",
      "type": "constructor"
    },
    {
      "anonymous": false,
      "inputs": [
        {
          "indexed": true,
          "name": "burner",
          "type": "address"
        },
        {
          "indexed": false,
          "name": "value",
          "type": "uint256"
        }
      ],
      "name": "Burn",
      "type": "event"
    },
    {
      "anonymous": false,
      "inputs": [
        {
          "indexed": true,
          "name": "owner",
          "type": "address"
        },
        {
          "indexed": true,
          "name": "spender",
          "type": "address"
        },
        {
          "indexed": false,
          "name": "value",
          "type": "uint256"
        }
      ],
      "name": "Approval",
      "type": "event"
    },
    {
      "anonymous": false,
      "inputs": [
        {
          "indexed": true,
          "name": "from",
          "type": "address"
        },
        {
          "indexed": true,
          "name": "to",
          "type": "address"
        },
        {
          "indexed": false,
          "name": "value",
          "type": "uint256"
        }
      ],
      "name": "Transfer",
      "type": "event"
    },
    {
      "constant": false,
      "inputs": [
        {
          "name": "_newUrbitAdminAddress",
          "type": "address"
        }
      ],
      "name": "changeAdmin",
      "outputs": [],
      "payable": false,
      "stateMutability": "nonpayable",
      "type": "function"
    },
    {
      "constant": false,
      "inputs": [],
      "name": "createSaleTokens",
      "outputs": [],
      "payable": false,
      "stateMutability": "nonpayable",
      "type": "function"
    },
    {
      "constant": false,
      "inputs": [],
      "name": "closeSale",
      "outputs": [],
      "payable": false,
      "stateMutability": "nonpayable",
      "type": "function"
    },
    {
      "constant": false,
      "inputs": [],
      "name": "burnUnsoldTokens",
      "outputs": [],
      "payable": false,
      "stateMutability": "nonpayable",
      "type": "function"
    },
    {
      "constant": false,
      "inputs": [
        {
          "name": "_tokensAmount",
          "type": "uint256"
        },
        {
          "name": "_beneficiary",
          "type": "address"
        },
        {
          "name": "_duration",
          "type": "uint256"
        }
      ],
      "name": "lockBonusTokens",
      "outputs": [],
      "payable": false,
      "stateMutability": "nonpayable",
      "type": "function"
    },
    {
      "constant": false,
      "inputs": [
        {
          "name": "_tokensAmount",
          "type": "uint256"
        },
        {
          "name": "_beneficiary",
          "type": "address"
        },
        {
          "name": "_duration",
          "type": "uint256"
        }
      ],
      "name": "lockReferralTokens",
      "outputs": [],
      "payable": false,
      "stateMutability": "nonpayable",
      "type": "function"
    },
    {
      "constant": false,
      "inputs": [
        {
          "name": "_fromVault",
          "type": "address"
        },
        {
          "name": "_tokensAmount",
          "type": "uint256"
        },
        {
          "name": "_beneficiary",
          "type": "address"
        },
        {
          "name": "_unlockTime",
          "type": "uint256"
        }
      ],
      "name": "lockTokens",
      "outputs": [],
      "payable": false,
      "stateMutability": "nonpayable",
      "type": "function"
    },
    {
      "constant": false,
      "inputs": [
        {
          "name": "_fromVault",
          "type": "address"
        },
        {
          "name": "_tokensAmount",
          "type": "uint256"
        },
        {
          "name": "_beneficiary",
          "type": "address"
        },
        {
          "name": "_start",
          "type": "uint256"
        },
        {
          "name": "_cliff",
          "type": "uint256"
        },
        {
          "name": "_duration",
          "type": "uint256"
        },
        {
          "name": "_revocable",
          "type": "bool"
        }
      ],
      "name": "vestTokens",
      "outputs": [],
      "payable": false,
      "stateMutability": "nonpayable",
      "type": "function"
    },
    {
      "constant": false,
      "inputs": [],
      "name": "releaseVestedTokens",
      "outputs": [],
      "payable": false,
      "stateMutability": "nonpayable",
      "type": "function"
    },
    {
      "constant": false,
      "inputs": [
        {
          "name": "_owner",
          "type": "address"
        }
      ],
      "name": "releaseVestedTokensFor",
      "outputs": [],
      "payable": false,
      "stateMutability": "nonpayable",
      "type": "function"
    },
    {
      "constant": true,
      "inputs": [],
      "name": "senderIsAdmin",
      "outputs": [
        {
          "name": "",
          "type": "bool"
        }
      ],
      "payable": false,
      "stateMutability": "view",
      "type": "function"
    },
    {
      "constant": true,
      "inputs": [],
      "name": "saleClosed",
      "outputs": [
        {
          "name": "",
          "type": "bool"
        }
      ],
      "payable": false,
      "stateMutability": "view",
      "type": "function"
    },
    {
      "constant": true,
      "inputs": [
        {
          "name": "_owner",
          "type": "address"
        }
      ],
      "name": "lockedBalanceOf",
      "outputs": [
        {
          "name": "",
          "type": "uint256"
        }
      ],
      "payable": false,
      "stateMutability": "view",
      "type": "function"
    },
    {
      "constant": true,
      "inputs": [
        {
          "name": "_owner",
          "type": "address"
        }
      ],
      "name": "releasableBalanceOf",
      "outputs": [
        {
          "name": "",
          "type": "uint256"
        }
      ],
      "payable": false,
      "stateMutability": "view",
      "type": "function"
    },
    {
      "constant": true,
      "inputs": [
        {
          "name": "_owner",
          "type": "address"
        }
      ],
      "name": "vestingCountOf",
      "outputs": [
        {
          "name": "",
          "type": "uint256"
        }
      ],
      "payable": false,
      "stateMutability": "view",
      "type": "function"
    },
    {
      "constant": true,
      "inputs": [
        {
          "name": "_owner",
          "type": "address"
        },
        {
          "name": "_index",
          "type": "uint256"
        }
      ],
      "name": "vestingOf",
      "outputs": [
        {
          "name": "",
          "type": "address"
        }
      ],
      "payable": false,
      "stateMutability": "view",
      "type": "function"
    },
    {
      "constant": false,
      "inputs": [
        {
          "name": "_from",
          "type": "address"
        },
        {
          "name": "_to",
          "type": "address"
        },
        {
          "name": "_value",
          "type": "uint256"
        }
      ],
      "name": "transferFrom",
      "outputs": [
        {
          "name": "",
          "type": "bool"
        }
      ],
      "payable": false,
      "stateMutability": "nonpayable",
      "type": "function"
    },
    {
      "constant": false,
      "inputs": [
        {
          "name": "_to",
          "type": "address"
        },
        {
          "name": "_value",
          "type": "uint256"
        }
      ],
      "name": "transfer",
      "outputs": [
        {
          "name": "",
          "type": "bool"
        }
      ],
      "payable": false,
      "stateMutability": "nonpayable",
      "type": "function"
    }
  ],
  "bytecode": "0x60806040526000600d5534801561001557600080fd5b50604051604080613199833981016040528051602090910151600160a060020a038216151561004357600080fd5b600160a060020a038116151561005857600080fd5b60038054600160a060020a03938416600160a060020a03199182161790915560048054929093169116179055613106806100936000396000f300608060405260043610620002225763ffffffff7c010000000000000000000000000000000000000000000000000000000060003504166306fdde03811462000227578063095ea7b314620002b75780630f98a9cc14620002f257806318160ddd14620003255780631ec365a7146200034f57806323b872dd1462000383578063257341a814620003b05780632740509d14620003d4578063313ce56714620003ec5780633a03171c146200041a57806342966c68146200043257806344e14e59146200044d57806348a50a5414620004775780634f801270146200048f57806354dd1da414620004b35780635935573614620004cb5780636117c9db14620004ef578063621d388c146200050757806366188463146200051f5780636d3036a714620005465780636f503e67146200055e57806370a0823114620005855780638f28397014620005a9578063940bb34414620005cd57806395d89b4114620005e557806397d0af1514620005fd578063a9059cbb1462000615578063ab90a8ac146200063c578063ae75c4f71462000654578063afa31744146200066c578063b8c766b81462000684578063bccb8fc0146200069c578063c26fe7ce14620006d8578063c4e34d4614620006fc578063d73dd6231462000726578063dc165652146200074d578063dd62ed3e1462000765578063dfb9366d146200078f578063e19136a414620007b6578063ee55efee14620007ce578063fd82a59f14620007e6575b600080fd5b3480156200023457600080fd5b506200023f620007fe565b6040805160208082528351818301528351919283929083019185019080838360005b838110156200027b57818101518382015260200162000261565b50505050905090810190601f168015620002a95780820380516001836020036101000a031916815260200191505b509250505060405180910390f35b348015620002c457600080fd5b50620002de600160a060020a036004351660243562000835565b604080519115158252519081900360200190f35b348015620002ff57600080fd5b5062000323600160a060020a0360043581169060243590604435166064356200089c565b005b3480156200033257600080fd5b506200033d6200095b565b60408051918252519081900360200190f35b3480156200035c57600080fd5b506200036762000961565b60408051600160a060020a039092168252519081900360200190f35b3480156200039057600080fd5b50620002de600160a060020a036004358116906024351660443562000970565b348015620003bd57600080fd5b506200033d600160a060020a0360043516620009c9565b348015620003e157600080fd5b5062000367620009e4565b348015620003f957600080fd5b5062000404620009f3565b6040805160ff9092168252519081900360200190f35b3480156200042757600080fd5b506200033d620009f8565b3480156200043f57600080fd5b506200032360043562000a08565b3480156200045a57600080fd5b5062000323600435600160a060020a036024351660443562000a17565b3480156200048457600080fd5b506200033d62000a76565b3480156200049c57600080fd5b506200033d600160a060020a036004351662000a7c565b348015620004c057600080fd5b506200032362000b7b565b348015620004d857600080fd5b506200033d600160a060020a036004351662000bee565b348015620004fc57600080fd5b506200036762000c6f565b3480156200051457600080fd5b50620002de62000c7e565b3480156200052c57600080fd5b50620002de600160a060020a036004351660243562000c9f565b3480156200055357600080fd5b506200033d62000d93565b3480156200056b57600080fd5b5062000367600160a060020a036004351660243562000d9f565b3480156200059257600080fd5b506200033d600160a060020a036004351662000de0565b348015620005b657600080fd5b5062000323600160a060020a036004351662000dfb565b348015620005da57600080fd5b506200032362000e49565b348015620005f257600080fd5b506200023f62000eec565b3480156200060a57600080fd5b506200036762000f23565b3480156200062257600080fd5b50620002de600160a060020a036004351660243562000f32565b3480156200064957600080fd5b506200032362000f88565b3480156200066157600080fd5b50620003676200105e565b3480156200067957600080fd5b50620003676200106d565b3480156200069157600080fd5b50620002de6200107c565b348015620006a957600080fd5b5062000323600160a060020a03600435811690602435906044351660643560843560a43560c435151562001085565b348015620006e557600080fd5b5062000323600160a060020a0360043516620011d4565b3480156200070957600080fd5b5062000323600435600160a060020a0360243516604435620012af565b3480156200073357600080fd5b50620002de600160a060020a036004351660243562001309565b3480156200075a57600080fd5b5062000367620013a4565b3480156200077257600080fd5b506200033d600160a060020a0360043581169060243516620013b3565b3480156200079c57600080fd5b5062000367600160a060020a0360043516602435620013de565b348015620007c357600080fd5b506200036762001416565b348015620007db57600080fd5b506200032362001425565b348015620007f357600080fd5b506200036762001460565b60408051808201909152600b81527f557262697420546f6b656e000000000000000000000000000000000000000000602082015281565b336000818152600260209081526040808320600160a060020a038716808552908352818420869055815186815291519394909390927f8c5be1e5ebec7d5bd14f71427d1e84f3dd0314c0f7b2291e5b200ac8c7c3b925928290030190a35060015b92915050565b620008a662000c7e565b1515620008b257600080fd5b604080517fbccb8fc0000000000000000000000000000000000000000000000000000000008152600160a060020a03868116600483015260248201869052841660448201526064810183905260006084820181905260a4820181905260c482018190529151309263bccb8fc09260e4808201939182900301818387803b1580156200093c57600080fd5b505af115801562000951573d6000803e3d6000fd5b5050505050505050565b60015490565b600654600160a060020a031681565b60006200097c6200107c565b80620009925750600454600160a060020a031633145b80620009a35750620009a362000c7e565b15620009be57620009b68484846200146f565b9050620009c2565b5060005b9392505050565b600160a060020a03166000908152600c602052604090205490565b600754600160a060020a031681565b601281565b6b01f04ef12cb04cf15800000081565b62000a143382620015de565b50565b62000a216200107c565b1562000a2c57600080fd5b600454600160a060020a031633148062000a4b575062000a4b62000c7e565b151562000a5757600080fd5b60065462000a7190600160a060020a0316848484620016d3565b505050565b600d5481565b600080805b600160a060020a0384166000908152600c602052604090205481101562000b7457600160a060020a0384166000908152600c6020526040902080548290811062000ac757fe5b6000918252602080832090910154604080517f1726cbc80000000000000000000000000000000000000000000000000000000081523060048201529051600160a060020a0390921693631726cbc89360248084019491939192918390030190829087803b15801562000b3857600080fd5b505af115801562000b4d573d6000803e3d6000fd5b505050506040513d602081101562000b6457600080fd5b5051919091019060010162000a81565b5092915050565b604080517fc26fe7ce0000000000000000000000000000000000000000000000000000000081523360048201529051309163c26fe7ce91602480830192600092919082900301818387803b15801562000bd357600080fd5b505af115801562000be8573d6000803e3d6000fd5b50505050565b600080805b600160a060020a0384166000908152600c602052604090205481101562000b7457600160a060020a0384166000908152600c6020526040812080548291908490811062000c3c57fe5b6000918252602080832090910154600160a060020a03168352820192909252604001902054919091019060010162000bf3565b600b54600160a060020a031681565b600354600090600160a060020a031633148062000c9a57503330145b905090565b336000908152600260209081526040808320600160a060020a03861684529091528120548083111562000cf657336000908152600260209081526040808320600160a060020a038816845290915281205562000d2d565b62000d08818463ffffffff620017f816565b336000908152600260209081526040808320600160a060020a03891684529091529020555b336000818152600260209081526040808320600160a060020a0389168085529083529281902054815190815290519293927f8c5be1e5ebec7d5bd14f71427d1e84f3dd0314c0f7b2291e5b200ac8c7c3b925929181900390910190a35060019392505050565b670de0b6b3a764000081565b600160a060020a0382166000908152600c6020526040812080548390811062000dc457fe5b600091825260209091200154600160a060020a03169392505050565b600160a060020a031660009081526020819052604090205490565b62000e0562000c7e565b151562000e1157600080fd5b600160a060020a038116151562000e2757600080fd5b60038054600160a060020a031916600160a060020a0392909216919091179055565b62000e5362000c7e565b151562000e5f57600080fd5b62000e696200107c565b151562000e7557600080fd5b600454600160a060020a031660008181526020819052604090205462000e9c9190620015de565b600554600160a060020a031660008181526020819052604090205462000ec39190620015de565b600654600160a060020a031660008181526020819052604090205462000eea9190620015de565b565b60408051808201909152600381527f5552420000000000000000000000000000000000000000000000000000000000602082015281565b600554600160a060020a031681565b600062000f3e6200107c565b8062000f545750600454600160a060020a031633145b8062000f65575062000f6562000c7e565b1562000f7f5762000f7783836200180b565b905062000896565b50600092915050565b62000f9262000c7e565b151562000f9e57600080fd5b62000fa86200107c565b1562000fb357600080fd5b600554600160a060020a03161562000fca57600080fd5b600654600160a060020a03161562000fe157600080fd5b60045462000ffe90630b6a1a2790600160a060020a0316620018e1565b6200100d630276e70762001963565b60058054600160a060020a031916600160a060020a03929092169190911790556200103c63012435d262001963565b60068054600160a060020a031916600160a060020a0392909216919091179055565b600a54600160a060020a031681565b600454600160a060020a031681565b600d5460001090565b60006200109162000c7e565b15156200109d57600080fd5b8585858585620010ac62001b4d565b600160a060020a039095168552602085019390935260408085019290925260608401529015156080830152519081900360a001906000f080158015620010f6573d6000803e3d6000fd5b50600160a060020a038781166000908152600c602090815260408083208054600181018255908452828420018054600160a060020a03191686861690811790915581517f23b872dd000000000000000000000000000000000000000000000000000000008152948e1660048601526024850152604484018c90525193945030936323b872dd93606480820194918390030190829087803b1580156200119a57600080fd5b505af1158015620011af573d6000803e3d6000fd5b505050506040513d6020811015620011c657600080fd5b505115156200095157600080fd5b6000805b600160a060020a0383166000908152600c602052604090205482101562000a7157600160a060020a0383166000908152600c602052604090208054839081106200121e57fe5b6000918252602082200154604080517f191655870000000000000000000000000000000000000000000000000000000081523060048201529051600160a060020a039092169350839263191655879260248084019382900301818387803b1580156200128957600080fd5b505af11580156200129e573d6000803e3d6000fd5b505060019093019250620011d89050565b620012b96200107c565b15620012c457600080fd5b600454600160a060020a0316331480620012e35750620012e362000c7e565b1515620012ef57600080fd5b60055462000a7190600160a060020a0316848484620016d3565b336000908152600260209081526040808320600160a060020a03861684529091528120546200133f908363ffffffff62001a3c16565b336000818152600260209081526040808320600160a060020a0389168085529083529281902085905580519485525191937f8c5be1e5ebec7d5bd14f71427d1e84f3dd0314c0f7b2291e5b200ac8c7c3b925929081900390910190a350600192915050565b600854600160a060020a031681565b600160a060020a03918216600090815260026020908152604080832093909416825291909152205490565b600c60205281600052604060002081815481101515620013fa57fe5b600091825260209091200154600160a060020a03169150829050565b600354600160a060020a031681565b6200142f62000c7e565b15156200143b57600080fd5b620014456200107c565b156200145057600080fd5b6200145a62001a4a565b42600d55565b600954600160a060020a031681565b6000600160a060020a03831615156200148757600080fd5b600160a060020a038416600090815260208190526040902054821115620014ad57600080fd5b600160a060020a0384166000908152600260209081526040808320338452909152902054821115620014de57600080fd5b600160a060020a03841660009081526020819052604090205462001509908363ffffffff620017f816565b600160a060020a03808616600090815260208190526040808220939093559085168152205462001540908363ffffffff62001a3c16565b600160a060020a0380851660009081526020818152604080832094909455918716815260028252828120338252909152205462001584908363ffffffff620017f816565b600160a060020a0380861660008181526002602090815260408083203384528252918290209490945580518681529051928716939192600080516020620030bb833981519152929181900390910190a35060019392505050565b600160a060020a0382166000908152602081905260409020548111156200160457600080fd5b600160a060020a0382166000908152602081905260409020546200162f908263ffffffff620017f816565b600160a060020a0383166000908152602081905260409020556001546200165d908263ffffffff620017f816565b600155604080518281529051600160a060020a038416917fcc16f5dbb4873280815c1ee09dbd06736cffcc184412cf7a71a0fdb75d397ca5919081900360200190a2604080518281529051600091600160a060020a03851691600080516020620030bb8339815191529181900360200190a35050565b60008282620016e162001b5e565b600160a060020a0390921682526020820152604080519182900301906000f08015801562001713573d6000803e3d6000fd5b50600160a060020a038481166000908152600c602090815260408083208054600181018255908452828420018054600160a060020a03191686861690811790915581517f23b872dd000000000000000000000000000000000000000000000000000000008152948b1660048601526024850152604484018990525193945030936323b872dd93606480820194918390030190829087803b158015620017b757600080fd5b505af1158015620017cc573d6000803e3d6000fd5b505050506040513d6020811015620017e357600080fd5b50511515620017f157600080fd5b5050505050565b6000828211156200180557fe5b50900390565b6000600160a060020a03831615156200182357600080fd5b336000908152602081905260409020548211156200184057600080fd5b3360009081526020819052604090205462001862908363ffffffff620017f816565b3360009081526020819052604080822092909255600160a060020a0385168152205462001896908363ffffffff62001a3c16565b600160a060020a03841660008181526020818152604091829020939093558051858152905191923392600080516020620030bb8339815191529281900390910190a350600192915050565b6000620018ed62000c7e565b1515620018f957600080fd5b5060015463ffffffff808416670de0b6b3a764000002916200191e91839062001a3c16565b600155600160a060020a03821660008181526020818152604080832085905580518581529051600080516020620030bb833981519152929181900390910190a3505050565b6000806200197062000c7e565b15156200197c57600080fd5b306200198762001b6f565b600160a060020a03909116815260405190819003602001906000f080158015620019b5573d6000803e3d6000fd5b509050620019c48382620018e1565b80600160a060020a03166312d60f866040518163ffffffff167c0100000000000000000000000000000000000000000000000000000000028152600401600060405180830381600087803b15801562001a1c57600080fd5b505af115801562001a31573d6000803e3d6000fd5b509295945050505050565b818101828110156200089657fe5b62001a5462000c7e565b151562001a6057600080fd5b62001a6f6301c9c38062001963565b60078054600160a060020a031916600160a060020a039290921691909117905562001a9e63016e360062001963565b60088054600160a060020a031916600160a060020a039290921691909117905562001acd63016e360062001963565b60098054600160a060020a031916600160a060020a039290921691909117905562001afc6308f0d18062001963565b600a8054600160a060020a031916600160a060020a039290921691909117905562001b2b6307270e0062001963565b600b8054600160a060020a031916600160a060020a0392909216919091179055565b6040516108fb8062001b8183390190565b6040516109a5806200247c83390190565b60405161029a8062002e21833901905600608060405234801561001057600080fd5b5060405160a0806108fb8339810160409081528151602083015191830151606084015160809094015160008054600160a060020a0319163317905591939091600160a060020a038516151561006457600080fd5b8183111561007157600080fd5b60018054600160a060020a031916600160a060020a0387161790556005805460ff191682151517905560048290556100b684846401000000006100c581026107011704565b600255505050600355506100d8565b818101828110156100d257fe5b92915050565b610814806100e76000396000f3006080604052600436106100ab5763ffffffff60e060020a6000350416630fb5a6b481146100b057806313d033c0146100d75780631726cbc8146100ec578063191655871461010d578063384711cc1461013057806338af3eed1461015157806374a8f10314610182578063872a7810146101a35780638da5cb5b146101cc5780639852595c146101e1578063be9a655514610202578063f2fde38b14610217578063fa01dc0614610238575b600080fd5b3480156100bc57600080fd5b506100c5610259565b60408051918252519081900360200190f35b3480156100e357600080fd5b506100c561025f565b3480156100f857600080fd5b506100c5600160a060020a0360043516610265565b34801561011957600080fd5b5061012e600160a060020a036004351661029d565b005b34801561013c57600080fd5b506100c5600160a060020a0360043516610349565b34801561015d57600080fd5b506101666104a0565b60408051600160a060020a039092168252519081900360200190f35b34801561018e57600080fd5b5061012e600160a060020a03600435166104af565b3480156101af57600080fd5b506101b8610616565b604080519115158252519081900360200190f35b3480156101d857600080fd5b5061016661061f565b3480156101ed57600080fd5b506100c5600160a060020a036004351661062e565b34801561020e57600080fd5b506100c5610640565b34801561022357600080fd5b5061012e600160a060020a0360043516610646565b34801561024457600080fd5b506101b8600160a060020a03600435166106da565b60045481565b60025481565b600160a060020a0381166000908152600660205260408120546102979061028b84610349565b9063ffffffff6106ef16565b92915050565b60006102a882610265565b9050600081116102b757600080fd5b600160a060020a0382166000908152600660205260409020546102e0908263ffffffff61070116565b600160a060020a038084166000818152600660205260409020929092556001546103129291168363ffffffff61070e16565b6040805182815290517ffb81f9b30d73d830c3544b34d827c08142579ee75710b490bab0b3995468c5659181900360200190a15050565b600080600083600160a060020a03166370a08231306040518263ffffffff1660e060020a0281526004018082600160a060020a0316600160a060020a03168152602001915050602060405180830381600087803b1580156103a957600080fd5b505af11580156103bd573d6000803e3d6000fd5b505050506040513d60208110156103d357600080fd5b5051600160a060020a03851660009081526006602052604090205490925061040290839063ffffffff61070116565b90506002544210156104175760009250610499565b60045460035461042c9163ffffffff61070116565b421015806104525750600160a060020a03841660009081526007602052604090205460ff165b1561045f57809250610499565b61049660045461048a61047d600354426106ef90919063ffffffff16565b849063ffffffff6107aa16565b9063ffffffff6107d316565b92505b5050919050565b600154600160a060020a031681565b6000805481908190600160a060020a031633146104cb57600080fd5b60055460ff1615156104dc57600080fd5b600160a060020a03841660009081526007602052604090205460ff161561050257600080fd5b604080517f70a082310000000000000000000000000000000000000000000000000000000081523060048201529051600160a060020a038616916370a082319160248083019260209291908290030181600087803b15801561056357600080fd5b505af1158015610577573d6000803e3d6000fd5b505050506040513d602081101561058d57600080fd5b5051925061059a84610265565b91506105ac838363ffffffff6106ef16565b600160a060020a038086166000818152600760205260408120805460ff19166001179055549293506105e7929091168363ffffffff61070e16565b6040517f44825a4b2df8acb19ce4e1afba9aa850c8b65cdb7942e2078f27d0b0960efee690600090a150505050565b60055460ff1681565b600054600160a060020a031681565b60066020526000908152604090205481565b60035481565b600054600160a060020a0316331461065d57600080fd5b600160a060020a038116151561067257600080fd5b60008054604051600160a060020a03808516939216917f8be0079c531659141344cd1fd0a4f28419497f9722a3daafe3b4186f6b6457e091a36000805473ffffffffffffffffffffffffffffffffffffffff1916600160a060020a0392909216919091179055565b60076020526000908152604090205460ff1681565b6000828211156106fb57fe5b50900390565b8181018281101561029757fe5b82600160a060020a031663a9059cbb83836040518363ffffffff1660e060020a0281526004018083600160a060020a0316600160a060020a0316815260200182815260200192505050602060405180830381600087803b15801561077157600080fd5b505af1158015610785573d6000803e3d6000fd5b505050506040513d602081101561079b57600080fd5b505115156107a557fe5b505050565b60008215156107bb57506000610297565b508181028183828115156107cb57fe5b041461029757fe5b600081838115156107e057fe5b0493925050505600a165627a7a723058203b912808ba389219e34f80a7eafe3b87073bdb93e2915516f5ef68eee3f7619c0029608060405234801561001057600080fd5b506040516040806109a583398101604052805160209091015160008054600160a060020a031916331781558290828082600160a060020a038516151561005557600080fd5b8183111561006257600080fd5b60018054600160a060020a031916600160a060020a0387161790556005805460ff191682151517905560048290556100a784846401000000006100b981026107b71704565b600255505050600355506100cc915050565b818101828110156100c657fe5b92915050565b6108ca806100db6000396000f3006080604052600436106100ab5763ffffffff60e060020a6000350416630fb5a6b481146100b057806313d033c0146100d75780631726cbc8146100ec578063191655871461010d578063384711cc1461013057806338af3eed1461015157806374a8f10314610182578063872a7810146101a35780638da5cb5b146101cc5780639852595c146101e1578063be9a655514610202578063f2fde38b14610217578063fa01dc0614610238575b600080fd5b3480156100bc57600080fd5b506100c5610259565b60408051918252519081900360200190f35b3480156100e357600080fd5b506100c561025f565b3480156100f857600080fd5b506100c5600160a060020a0360043516610265565b34801561011957600080fd5b5061012e600160a060020a036004351661029d565b005b34801561013c57600080fd5b506100c5600160a060020a0360043516610349565b34801561015d57600080fd5b50610166610556565b60408051600160a060020a039092168252519081900360200190f35b34801561018e57600080fd5b5061012e600160a060020a0360043516610565565b3480156101af57600080fd5b506101b86106cc565b604080519115158252519081900360200190f35b3480156101d857600080fd5b506101666106d5565b3480156101ed57600080fd5b506100c5600160a060020a03600435166106e4565b34801561020e57600080fd5b506100c56106f6565b34801561022357600080fd5b5061012e600160a060020a03600435166106fc565b34801561024457600080fd5b506101b8600160a060020a0360043516610790565b60045481565b60025481565b600160a060020a0381166000908152600660205260408120546102979061028b84610349565b9063ffffffff6107a516565b92915050565b60006102a882610265565b9050600081116102b757600080fd5b600160a060020a0382166000908152600660205260409020546102e0908263ffffffff6107b716565b600160a060020a038084166000818152600660205260409020929092556001546103129291168363ffffffff6107c416565b6040805182815290517ffb81f9b30d73d830c3544b34d827c08142579ee75710b490bab0b3995468c5659181900360200190a15050565b600080600080600085935083600160a060020a031663b8c766b86040518163ffffffff1660e060020a028152600401602060405180830381600087803b15801561039257600080fd5b505af11580156103a6573d6000803e3d6000fd5b505050506040513d60208110156103bc57600080fd5b505115156103cd576000945061054d565b604080517f70a082310000000000000000000000000000000000000000000000000000000081523060048201529051600160a060020a038816916370a082319160248083019260209291908290030181600087803b15801561042e57600080fd5b505af1158015610442573d6000803e3d6000fd5b505050506040513d602081101561045857600080fd5b5051600160a060020a03871660009081526006602052604090205490935061048790849063ffffffff6107b716565b915083600160a060020a03166348a50a546040518163ffffffff1660e060020a028152600401602060405180830381600087803b1580156104c757600080fd5b505af11580156104db573d6000803e3d6000fd5b505050506040513d60208110156104f157600080fd5b5051600454909150610509908263ffffffff6107b716565b42106105175781945061054d565b60045461054a9061053e610531428563ffffffff6107a516565b859063ffffffff61086016565b9063ffffffff61088916565b94505b50505050919050565b600154600160a060020a031681565b6000805481908190600160a060020a0316331461058157600080fd5b60055460ff16151561059257600080fd5b600160a060020a03841660009081526007602052604090205460ff16156105b857600080fd5b604080517f70a082310000000000000000000000000000000000000000000000000000000081523060048201529051600160a060020a038616916370a082319160248083019260209291908290030181600087803b15801561061957600080fd5b505af115801561062d573d6000803e3d6000fd5b505050506040513d602081101561064357600080fd5b5051925061065084610265565b9150610662838363ffffffff6107a516565b600160a060020a038086166000818152600760205260408120805460ff191660011790555492935061069d929091168363ffffffff6107c416565b6040517f44825a4b2df8acb19ce4e1afba9aa850c8b65cdb7942e2078f27d0b0960efee690600090a150505050565b60055460ff1681565b600054600160a060020a031681565b60066020526000908152604090205481565b60035481565b600054600160a060020a0316331461071357600080fd5b600160a060020a038116151561072857600080fd5b60008054604051600160a060020a03808516939216917f8be0079c531659141344cd1fd0a4f28419497f9722a3daafe3b4186f6b6457e091a36000805473ffffffffffffffffffffffffffffffffffffffff1916600160a060020a0392909216919091179055565b60076020526000908152604090205460ff1681565b6000828211156107b157fe5b50900390565b8181018281101561029757fe5b82600160a060020a031663a9059cbb83836040518363ffffffff1660e060020a0281526004018083600160a060020a0316600160a060020a0316815260200182815260200192505050602060405180830381600087803b15801561082757600080fd5b505af115801561083b573d6000803e3d6000fd5b505050506040513d602081101561085157600080fd5b5051151561085b57fe5b505050565b600082151561087157506000610297565b5081810281838281151561088157fe5b041461029757fe5b6000818381151561089657fe5b0493925050505600a165627a7a72305820cbfb05bf86dc82d10cdbc28084b79ff099236bf24d37053f6befa3acc4f25a8f0029608060405234801561001057600080fd5b5060405160208061029a833981016040525160008054600160a060020a03909216600160a060020a0319909216919091179055610248806100526000396000f30060806040526004361061004b5763ffffffff7c010000000000000000000000000000000000000000000000000000000060003504166312d60f868114610050578063fc0c546a14610067575b600080fd5b34801561005c57600080fd5b506100656100a5565b005b34801561007357600080fd5b5061007c610200565b6040805173ffffffffffffffffffffffffffffffffffffffff9092168252519081900360200190f35b60008054604080517f70a08231000000000000000000000000000000000000000000000000000000008152306004820152905173ffffffffffffffffffffffffffffffffffffffff909216916370a082319160248082019260209290919082900301818787803b15801561011857600080fd5b505af115801561012c573d6000803e3d6000fd5b505050506040513d602081101561014257600080fd5b505190506000811161015357600080fd5b60008054604080517f095ea7b300000000000000000000000000000000000000000000000000000000815273ffffffffffffffffffffffffffffffffffffffff90921660048301819052602483018590529051909263095ea7b392604480820193602093909283900390910190829087803b1580156101d157600080fd5b505af11580156101e5573d6000803e3d6000fd5b505050506040513d60208110156101fb57600080fd5b505050565b60005473ffffffffffffffffffffffffffffffffffffffff16815600a165627a7a72305820cc11330ce8da3b96d3f3d8ce3709869a29eb2eff17235d5b6a69aa7e49d621d30029ddf252ad1be2c89b69c2b068fc378daa952ba7f163c4a11628f55a4df523b3efa165627a7a723058200b2ca6d899712ce07f511bf3079329ea2995fa6102e2f73229b92a3d8cb9dfd60029",
  "source": "pragma solidity ^0.4.21;\n\nimport \"openzeppelin-solidity/contracts/token/ERC20/ERC20.sol\";\nimport \"openzeppelin-solidity/contracts/token/ERC20/StandardToken.sol\";\nimport \"openzeppelin-solidity/contracts/token/ERC20/BurnableToken.sol\";\nimport \"openzeppelin-solidity/contracts/token/ERC20/SafeERC20.sol\";\nimport \"openzeppelin-solidity/contracts/token/ERC20/TokenVesting.sol\";\nimport \"./PresaleTokenVesting.sol\";\nimport \"./TokenVault.sol\";\n\n\n/**\n * @title UrbitToken\n * @dev UrbitToken is a contract for the Urbit token sale, creating the\n * tokens and managing the vaults.\n */\ncontract UrbitToken is BurnableToken, StandardToken {\n    string public constant name = \"Urbit Token\"; // solium-disable-line uppercase\n    string public constant symbol = \"URB\"; // solium-disable-line uppercase\n    uint8 public constant decimals = 18; // solium-disable-line uppercase\n    uint256 public constant MAGNITUDE = 10**uint256(decimals);\n\n    /// Maximum tokens to be allocated (600 million)\n    uint256 public constant HARD_CAP = 600000000 * MAGNITUDE;\n\n    /// This address is used to manage the admin functions and allocate vested tokens\n    address public urbitAdminAddress;\n\n    /// This address is used to keep the tokens for sale\n    address public saleTokensAddress;\n\n    /// This vault is used to keep the bonus tokens\n    TokenVault public bonusTokensVault;\n\n    /// This vault is used to keep the referral tokens\n    TokenVault public referralTokensVault;\n\n    /// This vault is used to keep the team and founders tokens\n    TokenVault public urbitTeamTokensVault;\n\n    /// This vault is used to keep the bounty and marketing tokens\n    TokenVault public bountyTokensVault;\n\n    /// This vault is used to keep the advisors tokens\n    TokenVault public advisorsTokensVault;\n\n    /// This vault is used to keep the rewards tokens\n    TokenVault public rewardsTokensVault;\n\n    /// This vault is used to keep the retained tokens\n    TokenVault public retainedTokensVault;\n\n    /// Store the vesting contracts addresses\n    mapping(address => address[]) public vestingsOf;\n\n    /// when the token sale is closed, the trading is open\n    uint256 public saleClosedTimestamp = 0;\n\n    /// Only allowed to execute before the token sale is closed\n    modifier beforeSaleClosed {\n        require(!saleClosed());\n        _;\n    }\n\n    /// Limiting functions to the admins of the token only\n    modifier onlyAdmin {\n        require(senderIsAdmin());\n        _;\n    }\n\n    function UrbitToken(\n        address _urbitAdminAddress,\n        address _saleTokensAddress) public\n    {\n        require(_urbitAdminAddress != address(0));\n        require(_saleTokensAddress != address(0));\n\n        urbitAdminAddress = _urbitAdminAddress;\n        saleTokensAddress = _saleTokensAddress;\n    }\n\n    /// @dev allows the admin to assign a new admin\n    function changeAdmin(address _newUrbitAdminAddress) external onlyAdmin {\n        require(_newUrbitAdminAddress != address(0));\n        urbitAdminAddress = _newUrbitAdminAddress;\n    }\n\n    /// @dev creates the tokens needed for sale\n    function createSaleTokens() external onlyAdmin beforeSaleClosed {\n        require(bonusTokensVault == address(0));\n        require(referralTokensVault == address(0));\n\n        /// Maximum tokens to be allocated on the sale\n        /// 191,502,887 URB\n        createTokens(191502887, saleTokensAddress);\n\n        /// Bonus tokens - 41,346,823 URB\n        bonusTokensVault = createTokenVault(41346823);\n\n        /// Referral tokens - 19,150,290 URB\n        referralTokensVault = createTokenVault(19150290);\n    }\n\n    /// @dev Close the token sale\n    function closeSale() external onlyAdmin beforeSaleClosed {\n        createAwardTokens();\n        saleClosedTimestamp = block.timestamp; // solium-disable-line security/no-block-members\n    }\n\n    /// @dev Once the token sale is closed and tokens are distributed,\n    /// burn the remaining unsold, undistributed tokens\n    function burnUnsoldTokens() external onlyAdmin {\n        require(saleClosed());\n        _burn(saleTokensAddress, balances[saleTokensAddress]);\n        _burn(bonusTokensVault, balances[bonusTokensVault]);\n        _burn(referralTokensVault, balances[referralTokensVault]);\n    }\n\n    function lockBonusTokens(uint256 _tokensAmount, address _beneficiary, uint256 _duration) external beforeSaleClosed {\n        require(msg.sender == saleTokensAddress || senderIsAdmin());\n        _presaleLock(bonusTokensVault, _tokensAmount, _beneficiary, _duration);\n    }\n\n    function lockReferralTokens(uint256 _tokensAmount, address _beneficiary, uint256 _duration) external beforeSaleClosed {\n        require(msg.sender == saleTokensAddress || senderIsAdmin());\n        _presaleLock(referralTokensVault, _tokensAmount, _beneficiary, _duration);\n    }\n\n    /// @dev Shorter version of vest tokens (lock for a single whole period)\n    function lockTokens(address _fromVault, uint256 _tokensAmount, address _beneficiary, uint256 _unlockTime) external onlyAdmin {\n        this.vestTokens(_fromVault, _tokensAmount, _beneficiary, _unlockTime, 0, 0, false); // solium-disable-line arg-overflow\n    }\n\n    /// @dev Vest tokens\n    function vestTokens(\n        address _fromVault,\n        uint256 _tokensAmount,\n        address _beneficiary,\n        uint256 _start,\n        uint256 _cliff,\n        uint256 _duration,\n        bool _revocable)\n        external onlyAdmin\n    {\n        TokenVesting vesting = new TokenVesting(_beneficiary, _start, _cliff, _duration, _revocable);\n        vestingsOf[_beneficiary].push(address(vesting));\n\n        require(this.transferFrom(_fromVault, vesting, _tokensAmount));\n    }\n\n    /// @dev releases vested tokens for the caller's own address\n    function releaseVestedTokens() external {\n        this.releaseVestedTokensFor(msg.sender);\n    }\n\n    /// @dev releases vested tokens for the specified address.\n    /// Can be called by any account for any address.\n    function releaseVestedTokensFor(address _owner) external {\n        for (uint i = 0; i < vestingsOf[_owner].length; i++) {\n            TokenVesting tv = TokenVesting(vestingsOf[_owner][i]);\n            tv.release(ERC20Basic(address(this)));\n        }\n    }\n\n    /// @dev returns whether the sender is admin (or the contract itself)\n    function senderIsAdmin() public view returns (bool) {\n        return (msg.sender == urbitAdminAddress || msg.sender == address(this));\n    }\n\n    /// @dev The sale is closed when the saleClosedTimestamp is set.\n    function saleClosed() public view returns (bool) {\n        return (saleClosedTimestamp > 0);\n    }\n\n    /// @dev check the locked balance for an address\n    function lockedBalanceOf(address _owner) public view returns (uint256) {\n        uint256 result = 0;\n        for (uint i = 0; i < vestingsOf[_owner].length; i++) {\n            result += balances[vestingsOf[_owner][i]];\n        }\n        return result;\n    }\n\n    /// @dev check the locked but releasable balance for an address\n    function releasableBalanceOf(address _owner) public view returns (uint256) {\n        uint256 result = 0;\n        for (uint i = 0; i < vestingsOf[_owner].length; i++) {\n            result += TokenVesting(vestingsOf[_owner][i]).releasableAmount(this);\n        }\n        return result;\n    }\n\n    /// @dev get the number of TokenVesting contracts for an address\n    function vestingCountOf(address _owner) public view returns (uint) {\n        return vestingsOf[_owner].length;\n    }\n\n    /// @dev get the specified TokenVesting contract address for an address\n    function vestingOf(address _owner, uint _index) public view returns (address) {\n        return vestingsOf[_owner][_index];\n    }\n\n    /// @dev Trading is limited before the sale is closed\n    function transferFrom(address _from, address _to, uint256 _value) public returns (bool) {\n        if (saleClosed() || msg.sender == saleTokensAddress || senderIsAdmin()) {\n            return super.transferFrom(_from, _to, _value);\n        }\n        return false;\n    }\n\n    /// @dev Trading is limited before the sale is closed\n    function transfer(address _to, uint256 _value) public returns (bool) {\n        if (saleClosed() || msg.sender == saleTokensAddress || senderIsAdmin()) {\n            return super.transfer(_to, _value);\n        }\n        return false;\n    }\n\n    /// @dev Grant tokens which begin vesting upon close of sale.\n    function _presaleLock(TokenVault _fromVault, uint256 _tokensAmount, address _beneficiary, uint256 _duration) internal {\n        PresaleTokenVesting vesting = new PresaleTokenVesting(_beneficiary, _duration);\n        vestingsOf[_beneficiary].push(address(vesting));\n\n        require(this.transferFrom(_fromVault, vesting, _tokensAmount));\n    }\n\n    // @dev create specified number of toekns and transfer to destination\n    function createTokens(uint32 count, address destination) internal onlyAdmin {\n        uint256 tokens = count * MAGNITUDE;\n        totalSupply_ = totalSupply_.add(tokens);\n        balances[destination] = tokens;\n        emit Transfer(0x0, destination, tokens);\n    }\n\n    /// @dev Create a TokenVault and fill with the specified newly minted tokens\n    function createTokenVault(uint32 count) internal onlyAdmin returns (TokenVault) {\n        TokenVault tokenVault = new TokenVault(ERC20(this));\n        createTokens(count, tokenVault);\n        tokenVault.fillUpAllowance();\n        return tokenVault;\n    }\n\n    /// @dev Creates the tokens awarded after the sale is closed\n    function createAwardTokens() internal onlyAdmin {\n        /// Team tokens - 30M URB\n        urbitTeamTokensVault = createTokenVault(30000000);\n\n        /// Bounty tokens - 24M URB\n        bountyTokensVault = createTokenVault(24000000);\n\n        /// Advisors tokens - 24M URB\n        advisorsTokensVault = createTokenVault(24000000);\n\n        /// Rewards tokens - 150M URB\n        rewardsTokensVault = createTokenVault(150000000);\n\n        /// Retained tokens - 120M URB\n        retainedTokensVault = createTokenVault(120000000);\n    }\n}\n",
  "sourcePath": "/home/cleduc/src/urbit/contracts/UrbitToken.sol",
  "compiler": {
    "name": "solc",
    "version": "0.4.24+commit.e67f0147.Emscripten.clang"
  },
  "schemaVersion": "2.0.1",
  "updatedAt": "2018-06-29T18:05:32.721Z"
}