{
  "contractName": "UrbitToken",
  "abi": [
    {
      "constant": true,
      "inputs": [],
      "name": "name",
      "outputs": [
        {
          "name": "",
          "type": "string"
        }
      ],
      "payable": false,
      "stateMutability": "view",
      "type": "function"
    },
    {
      "constant": false,
      "inputs": [
        {
          "name": "_spender",
          "type": "address"
        },
        {
          "name": "_value",
          "type": "uint256"
        }
      ],
      "name": "approve",
      "outputs": [
        {
          "name": "",
          "type": "bool"
        }
      ],
      "payable": false,
      "stateMutability": "nonpayable",
      "type": "function"
    },
    {
      "constant": true,
      "inputs": [],
      "name": "totalSupply",
      "outputs": [
        {
          "name": "",
          "type": "uint256"
        }
      ],
      "payable": false,
      "stateMutability": "view",
      "type": "function"
    },
    {
      "constant": true,
      "inputs": [],
      "name": "referralTokensVault",
      "outputs": [
        {
          "name": "",
          "type": "address"
        }
      ],
      "payable": false,
      "stateMutability": "view",
      "type": "function"
    },
    {
      "constant": true,
      "inputs": [],
      "name": "urbitTeamTokensVault",
      "outputs": [
        {
          "name": "",
          "type": "address"
        }
      ],
      "payable": false,
      "stateMutability": "view",
      "type": "function"
    },
    {
      "constant": true,
      "inputs": [],
      "name": "decimals",
      "outputs": [
        {
          "name": "",
          "type": "uint8"
        }
      ],
      "payable": false,
      "stateMutability": "view",
      "type": "function"
    },
    {
      "constant": true,
      "inputs": [],
      "name": "HARD_CAP",
      "outputs": [
        {
          "name": "",
          "type": "uint256"
        }
      ],
      "payable": false,
      "stateMutability": "view",
      "type": "function"
    },
    {
      "constant": false,
      "inputs": [
        {
          "name": "_value",
          "type": "uint256"
        }
      ],
      "name": "burn",
      "outputs": [],
      "payable": false,
      "stateMutability": "nonpayable",
      "type": "function"
    },
    {
      "constant": true,
      "inputs": [],
      "name": "saleClosedTimestamp",
      "outputs": [
        {
          "name": "",
          "type": "uint256"
        }
      ],
      "payable": false,
      "stateMutability": "view",
      "type": "function"
    },
    {
      "constant": true,
      "inputs": [],
      "name": "retainedTokensVault",
      "outputs": [
        {
          "name": "",
          "type": "address"
        }
      ],
      "payable": false,
      "stateMutability": "view",
      "type": "function"
    },
    {
      "constant": false,
      "inputs": [
        {
          "name": "_spender",
          "type": "address"
        },
        {
          "name": "_subtractedValue",
          "type": "uint256"
        }
      ],
      "name": "decreaseApproval",
      "outputs": [
        {
          "name": "",
          "type": "bool"
        }
      ],
      "payable": false,
      "stateMutability": "nonpayable",
      "type": "function"
    },
    {
      "constant": true,
      "inputs": [],
      "name": "MAGNITUDE",
      "outputs": [
        {
          "name": "",
          "type": "uint256"
        }
      ],
      "payable": false,
      "stateMutability": "view",
      "type": "function"
    },
    {
      "constant": true,
      "inputs": [
        {
          "name": "_owner",
          "type": "address"
        }
      ],
      "name": "balanceOf",
      "outputs": [
        {
          "name": "",
          "type": "uint256"
        }
      ],
      "payable": false,
      "stateMutability": "view",
      "type": "function"
    },
    {
      "constant": true,
      "inputs": [],
      "name": "symbol",
      "outputs": [
        {
          "name": "",
          "type": "string"
        }
      ],
      "payable": false,
      "stateMutability": "view",
      "type": "function"
    },
    {
      "constant": true,
      "inputs": [],
      "name": "bonusTokensVault",
      "outputs": [
        {
          "name": "",
          "type": "address"
        }
      ],
      "payable": false,
      "stateMutability": "view",
      "type": "function"
    },
    {
      "constant": true,
      "inputs": [],
      "name": "rewardsTokensVault",
      "outputs": [
        {
          "name": "",
          "type": "address"
        }
      ],
      "payable": false,
      "stateMutability": "view",
      "type": "function"
    },
    {
      "constant": true,
      "inputs": [],
      "name": "saleTokensAddress",
      "outputs": [
        {
          "name": "",
          "type": "address"
        }
      ],
      "payable": false,
      "stateMutability": "view",
      "type": "function"
    },
    {
      "constant": false,
      "inputs": [
        {
          "name": "_spender",
          "type": "address"
        },
        {
          "name": "_addedValue",
          "type": "uint256"
        }
      ],
      "name": "increaseApproval",
      "outputs": [
        {
          "name": "",
          "type": "bool"
        }
      ],
      "payable": false,
      "stateMutability": "nonpayable",
      "type": "function"
    },
    {
      "constant": true,
      "inputs": [],
      "name": "bountyTokensVault",
      "outputs": [
        {
          "name": "",
          "type": "address"
        }
      ],
      "payable": false,
      "stateMutability": "view",
      "type": "function"
    },
    {
      "constant": true,
      "inputs": [
        {
          "name": "_owner",
          "type": "address"
        },
        {
          "name": "_spender",
          "type": "address"
        }
      ],
      "name": "allowance",
      "outputs": [
        {
          "name": "",
          "type": "uint256"
        }
      ],
      "payable": false,
      "stateMutability": "view",
      "type": "function"
    },
    {
      "constant": true,
      "inputs": [
        {
          "name": "",
          "type": "address"
        },
        {
          "name": "",
          "type": "uint256"
        }
      ],
      "name": "vestingsOf",
      "outputs": [
        {
          "name": "",
          "type": "address"
        }
      ],
      "payable": false,
      "stateMutability": "view",
      "type": "function"
    },
    {
      "constant": true,
      "inputs": [],
      "name": "urbitAdminAddress",
      "outputs": [
        {
          "name": "",
          "type": "address"
        }
      ],
      "payable": false,
      "stateMutability": "view",
      "type": "function"
    },
    {
      "constant": true,
      "inputs": [],
      "name": "advisorsTokensVault",
      "outputs": [
        {
          "name": "",
          "type": "address"
        }
      ],
      "payable": false,
      "stateMutability": "view",
      "type": "function"
    },
    {
      "inputs": [
        {
          "name": "_urbitAdminAddress",
          "type": "address"
        },
        {
          "name": "_saleTokensAddress",
          "type": "address"
        }
      ],
      "payable": false,
      "stateMutability": "nonpayable",
      "type": "constructor"
    },
    {
      "anonymous": false,
      "inputs": [
        {
          "indexed": true,
          "name": "burner",
          "type": "address"
        },
        {
          "indexed": false,
          "name": "value",
          "type": "uint256"
        }
      ],
      "name": "Burn",
      "type": "event"
    },
    {
      "anonymous": false,
      "inputs": [
        {
          "indexed": true,
          "name": "owner",
          "type": "address"
        },
        {
          "indexed": true,
          "name": "spender",
          "type": "address"
        },
        {
          "indexed": false,
          "name": "value",
          "type": "uint256"
        }
      ],
      "name": "Approval",
      "type": "event"
    },
    {
      "anonymous": false,
      "inputs": [
        {
          "indexed": true,
          "name": "from",
          "type": "address"
        },
        {
          "indexed": true,
          "name": "to",
          "type": "address"
        },
        {
          "indexed": false,
          "name": "value",
          "type": "uint256"
        }
      ],
      "name": "Transfer",
      "type": "event"
    },
    {
      "constant": false,
      "inputs": [
        {
          "name": "_newUrbitAdminAddress",
          "type": "address"
        }
      ],
      "name": "changeAdmin",
      "outputs": [],
      "payable": false,
      "stateMutability": "nonpayable",
      "type": "function"
    },
    {
      "constant": false,
      "inputs": [],
      "name": "createSaleTokens",
      "outputs": [],
      "payable": false,
      "stateMutability": "nonpayable",
      "type": "function"
    },
    {
      "constant": false,
      "inputs": [],
      "name": "closeSale",
      "outputs": [],
      "payable": false,
      "stateMutability": "nonpayable",
      "type": "function"
    },
    {
      "constant": false,
      "inputs": [],
      "name": "burnUnsoldTokens",
      "outputs": [],
      "payable": false,
      "stateMutability": "nonpayable",
      "type": "function"
    },
    {
      "constant": false,
      "inputs": [
        {
          "name": "_tokensAmount",
          "type": "uint256"
        },
        {
          "name": "_beneficiary",
          "type": "address"
        },
        {
          "name": "_duration",
          "type": "uint256"
        }
      ],
      "name": "lockBonusTokens",
      "outputs": [],
      "payable": false,
      "stateMutability": "nonpayable",
      "type": "function"
    },
    {
      "constant": false,
      "inputs": [
        {
          "name": "_tokensAmount",
          "type": "uint256"
        },
        {
          "name": "_beneficiary",
          "type": "address"
        },
        {
          "name": "_duration",
          "type": "uint256"
        }
      ],
      "name": "lockBountyTokens",
      "outputs": [],
      "payable": false,
      "stateMutability": "nonpayable",
      "type": "function"
    },
    {
      "constant": false,
      "inputs": [
        {
          "name": "_tokensAmount",
          "type": "uint256"
        },
        {
          "name": "_beneficiary",
          "type": "address"
        },
        {
          "name": "_duration",
          "type": "uint256"
        }
      ],
      "name": "lockReferralTokens",
      "outputs": [],
      "payable": false,
      "stateMutability": "nonpayable",
      "type": "function"
    },
    {
      "constant": false,
      "inputs": [
        {
          "name": "_fromVault",
          "type": "address"
        },
        {
          "name": "_tokensAmount",
          "type": "uint256"
        },
        {
          "name": "_beneficiary",
          "type": "address"
        },
        {
          "name": "_unlockTime",
          "type": "uint256"
        }
      ],
      "name": "lockTokens",
      "outputs": [],
      "payable": false,
      "stateMutability": "nonpayable",
      "type": "function"
    },
    {
      "constant": false,
      "inputs": [
        {
          "name": "_fromVault",
          "type": "address"
        },
        {
          "name": "_tokensAmount",
          "type": "uint256"
        },
        {
          "name": "_beneficiary",
          "type": "address"
        },
        {
          "name": "_start",
          "type": "uint256"
        },
        {
          "name": "_cliff",
          "type": "uint256"
        },
        {
          "name": "_duration",
          "type": "uint256"
        },
        {
          "name": "_revocable",
          "type": "bool"
        }
      ],
      "name": "vestTokens",
      "outputs": [],
      "payable": false,
      "stateMutability": "nonpayable",
      "type": "function"
    },
    {
      "constant": false,
      "inputs": [],
      "name": "releaseVestedTokens",
      "outputs": [],
      "payable": false,
      "stateMutability": "nonpayable",
      "type": "function"
    },
    {
      "constant": false,
      "inputs": [
        {
          "name": "_owner",
          "type": "address"
        }
      ],
      "name": "releaseVestedTokensFor",
      "outputs": [],
      "payable": false,
      "stateMutability": "nonpayable",
      "type": "function"
    },
    {
      "constant": true,
      "inputs": [],
      "name": "senderIsAdmin",
      "outputs": [
        {
          "name": "",
          "type": "bool"
        }
      ],
      "payable": false,
      "stateMutability": "view",
      "type": "function"
    },
    {
      "constant": true,
      "inputs": [],
      "name": "saleClosed",
      "outputs": [
        {
          "name": "",
          "type": "bool"
        }
      ],
      "payable": false,
      "stateMutability": "view",
      "type": "function"
    },
    {
      "constant": true,
      "inputs": [
        {
          "name": "_owner",
          "type": "address"
        }
      ],
      "name": "lockedBalanceOf",
      "outputs": [
        {
          "name": "",
          "type": "uint256"
        }
      ],
      "payable": false,
      "stateMutability": "view",
      "type": "function"
    },
    {
      "constant": true,
      "inputs": [
        {
          "name": "_owner",
          "type": "address"
        }
      ],
      "name": "releasableBalanceOf",
      "outputs": [
        {
          "name": "",
          "type": "uint256"
        }
      ],
      "payable": false,
      "stateMutability": "view",
      "type": "function"
    },
    {
      "constant": true,
      "inputs": [
        {
          "name": "_owner",
          "type": "address"
        }
      ],
      "name": "vestingCountOf",
      "outputs": [
        {
          "name": "",
          "type": "uint256"
        }
      ],
      "payable": false,
      "stateMutability": "view",
      "type": "function"
    },
    {
      "constant": true,
      "inputs": [
        {
          "name": "_owner",
          "type": "address"
        },
        {
          "name": "_index",
          "type": "uint256"
        }
      ],
      "name": "vestingOf",
      "outputs": [
        {
          "name": "",
          "type": "address"
        }
      ],
      "payable": false,
      "stateMutability": "view",
      "type": "function"
    },
    {
      "constant": false,
      "inputs": [
        {
          "name": "_from",
          "type": "address"
        },
        {
          "name": "_to",
          "type": "address"
        },
        {
          "name": "_value",
          "type": "uint256"
        }
      ],
      "name": "transferFrom",
      "outputs": [
        {
          "name": "",
          "type": "bool"
        }
      ],
      "payable": false,
      "stateMutability": "nonpayable",
      "type": "function"
    },
    {
      "constant": false,
      "inputs": [
        {
          "name": "_to",
          "type": "address"
        },
        {
          "name": "_value",
          "type": "uint256"
        }
      ],
      "name": "transfer",
      "outputs": [
        {
          "name": "",
          "type": "bool"
        }
      ],
      "payable": false,
      "stateMutability": "nonpayable",
      "type": "function"
    }
  ],
  "bytecode": "0x60806040526000600d5534801561001557600080fd5b50604051604080613267833981016040528051602090910151600160a060020a038216151561004357600080fd5b600160a060020a038116151561005857600080fd5b60038054600160a060020a03938416600160a060020a031991821617909155600480549290931691161790556131d4806100936000396000f3006080604052600436106200022e5763ffffffff7c010000000000000000000000000000000000000000000000000000000060003504166306fdde03811462000233578063095ea7b314620002c35780630f98a9cc14620002fe57806318160ddd14620003315780631ec365a7146200035b57806323b872dd146200038f578063257341a814620003bc5780632740509d14620003e0578063313ce56714620003f85780633a03171c146200042657806342966c68146200043e57806344e14e59146200045957806348a50a5414620004835780634f801270146200049b57806354dd1da414620004bf57806356d4046814620004d75780635935573614620005015780636117c9db1462000525578063621d388c146200053d5780636618846314620005555780636d3036a7146200057c5780636f503e67146200059457806370a0823114620005bb5780638f28397014620005df578063940bb344146200060357806395d89b41146200061b57806397d0af151462000633578063a9059cbb146200064b578063ab90a8ac1462000672578063ae75c4f7146200068a578063afa3174414620006a2578063b8c766b814620006ba578063bccb8fc014620006d2578063c26fe7ce146200070e578063c4e34d461462000732578063d73dd623146200075c578063dc1656521462000783578063dd62ed3e146200079b578063dfb9366d14620007c5578063e19136a414620007ec578063ee55efee1462000804578063fd82a59f146200081c575b600080fd5b3480156200024057600080fd5b506200024b62000834565b6040805160208082528351818301528351919283929083019185019080838360005b83811015620002875781810151838201526020016200026d565b50505050905090810190601f168015620002b55780820380516001836020036101000a031916815260200191505b509250505060405180910390f35b348015620002d057600080fd5b50620002ea600160a060020a03600435166024356200086b565b604080519115158252519081900360200190f35b3480156200030b57600080fd5b506200032f600160a060020a036004358116906024359060443516606435620008d2565b005b3480156200033e57600080fd5b506200034962000991565b60408051918252519081900360200190f35b3480156200036857600080fd5b506200037362000997565b60408051600160a060020a039092168252519081900360200190f35b3480156200039c57600080fd5b50620002ea600160a060020a0360043581169060243516604435620009a6565b348015620003c957600080fd5b5062000349600160a060020a0360043516620009ff565b348015620003ed57600080fd5b506200037362000a1a565b3480156200040557600080fd5b506200041062000a29565b6040805160ff9092168252519081900360200190f35b3480156200043357600080fd5b506200034962000a2e565b3480156200044b57600080fd5b506200032f60043562000a3e565b3480156200046657600080fd5b506200032f600435600160a060020a036024351660443562000a4d565b3480156200049057600080fd5b506200034962000aac565b348015620004a857600080fd5b5062000349600160a060020a036004351662000ab2565b348015620004cc57600080fd5b506200032f62000bb1565b348015620004e457600080fd5b506200032f600435600160a060020a036024351660443562000c24565b3480156200050e57600080fd5b5062000349600160a060020a036004351662000c7e565b3480156200053257600080fd5b506200037362000cff565b3480156200054a57600080fd5b50620002ea62000d0e565b3480156200056257600080fd5b50620002ea600160a060020a036004351660243562000d2f565b3480156200058957600080fd5b506200034962000e23565b348015620005a157600080fd5b5062000373600160a060020a036004351660243562000e2f565b348015620005c857600080fd5b5062000349600160a060020a036004351662000e70565b348015620005ec57600080fd5b506200032f600160a060020a036004351662000e8b565b3480156200061057600080fd5b506200032f62000ed9565b3480156200062857600080fd5b506200024b62000fa3565b3480156200064057600080fd5b506200037362000fda565b3480156200065857600080fd5b50620002ea600160a060020a036004351660243562000fe9565b3480156200067f57600080fd5b506200032f6200103f565b3480156200069757600080fd5b50620003736200115b565b348015620006af57600080fd5b50620003736200116a565b348015620006c757600080fd5b50620002ea62001179565b348015620006df57600080fd5b506200032f600160a060020a03600435811690602435906044351660643560843560a43560c435151562001182565b3480156200071b57600080fd5b506200032f600160a060020a0360043516620012d1565b3480156200073f57600080fd5b506200032f600435600160a060020a0360243516604435620013ac565b3480156200076957600080fd5b50620002ea600160a060020a036004351660243562001406565b3480156200079057600080fd5b5062000373620014a1565b348015620007a857600080fd5b5062000349600160a060020a0360043581169060243516620014b0565b348015620007d257600080fd5b5062000373600160a060020a0360043516602435620014db565b348015620007f957600080fd5b506200037362001513565b3480156200081157600080fd5b506200032f62001522565b3480156200082957600080fd5b50620003736200155d565b60408051808201909152600b81527f557262697420546f6b656e000000000000000000000000000000000000000000602082015281565b336000818152600260209081526040808320600160a060020a038716808552908352818420869055815186815291519394909390927f8c5be1e5ebec7d5bd14f71427d1e84f3dd0314c0f7b2291e5b200ac8c7c3b925928290030190a35060015b92915050565b620008dc62000d0e565b1515620008e857600080fd5b604080517fbccb8fc0000000000000000000000000000000000000000000000000000000008152600160a060020a03868116600483015260248201869052841660448201526064810183905260006084820181905260a4820181905260c482018190529151309263bccb8fc09260e4808201939182900301818387803b1580156200097257600080fd5b505af115801562000987573d6000803e3d6000fd5b5050505050505050565b60015490565b600754600160a060020a031681565b6000620009b262001179565b80620009c85750600454600160a060020a031633145b80620009d95750620009d962000d0e565b15620009f457620009ec8484846200156c565b9050620009f8565b5060005b9392505050565b600160a060020a03166000908152600c602052604090205490565b600854600160a060020a031681565b601281565b6b01f04ef12cb04cf15800000081565b62000a4a3382620016db565b50565b62000a5762001179565b1562000a6257600080fd5b600454600160a060020a031633148062000a81575062000a8162000d0e565b151562000a8d57600080fd5b60075462000aa790600160a060020a0316848484620017d0565b505050565b600d5481565b600080805b600160a060020a0384166000908152600c602052604090205481101562000baa57600160a060020a0384166000908152600c6020526040902080548290811062000afd57fe5b6000918252602080832090910154604080517f1726cbc80000000000000000000000000000000000000000000000000000000081523060048201529051600160a060020a0390921693631726cbc89360248084019491939192918390030190829087803b15801562000b6e57600080fd5b505af115801562000b83573d6000803e3d6000fd5b505050506040513d602081101562000b9a57600080fd5b5051919091019060010162000ab7565b5092915050565b604080517fc26fe7ce0000000000000000000000000000000000000000000000000000000081523360048201529051309163c26fe7ce91602480830192600092919082900301818387803b15801562000c0957600080fd5b505af115801562000c1e573d6000803e3d6000fd5b50505050565b62000c2e62001179565b1562000c3957600080fd5b600454600160a060020a031633148062000c58575062000c5862000d0e565b151562000c6457600080fd5b60065462000aa790600160a060020a0316848484620017d0565b600080805b600160a060020a0384166000908152600c602052604090205481101562000baa57600160a060020a0384166000908152600c6020526040812080548291908490811062000ccc57fe5b6000918252602080832090910154600160a060020a03168352820192909252604001902054919091019060010162000c83565b600b54600160a060020a031681565b600354600090600160a060020a031633148062000d2a57503330145b905090565b336000908152600260209081526040808320600160a060020a03861684529091528120548083111562000d8657336000908152600260209081526040808320600160a060020a038816845290915281205562000dbd565b62000d98818463ffffffff620018f516565b336000908152600260209081526040808320600160a060020a03891684529091529020555b336000818152600260209081526040808320600160a060020a0389168085529083529281902054815190815290519293927f8c5be1e5ebec7d5bd14f71427d1e84f3dd0314c0f7b2291e5b200ac8c7c3b925929181900390910190a35060019392505050565b670de0b6b3a764000081565b600160a060020a0382166000908152600c6020526040812080548390811062000e5457fe5b600091825260209091200154600160a060020a03169392505050565b600160a060020a031660009081526020819052604090205490565b62000e9562000d0e565b151562000ea157600080fd5b600160a060020a038116151562000eb757600080fd5b60038054600160a060020a031916600160a060020a0392909216919091179055565b62000ee362000d0e565b151562000eef57600080fd5b62000ef962001179565b151562000f0557600080fd5b600454600160a060020a031660008181526020819052604090205462000f2c9190620016db565b600554600160a060020a031660008181526020819052604090205462000f539190620016db565b600654600160a060020a031660008181526020819052604090205462000f7a9190620016db565b600754600160a060020a031660008181526020819052604090205462000fa19190620016db565b565b60408051808201909152600381527f5552420000000000000000000000000000000000000000000000000000000000602082015281565b600554600160a060020a031681565b600062000ff562001179565b806200100b5750600454600160a060020a031633145b806200101c57506200101c62000d0e565b1562001036576200102e838362001908565b9050620008cc565b50600092915050565b6200104962000d0e565b15156200105557600080fd5b6200105f62001179565b156200106a57600080fd5b600554600160a060020a0316156200108157600080fd5b600654600160a060020a0316156200109857600080fd5b600754600160a060020a031615620010af57600080fd5b600454620010cc90630b6a1a2790600160a060020a0316620019de565b620010db630276e70762001a60565b60058054600160a060020a031916600160a060020a03929092169190911790556200110a63016e360062001a60565b60068054600160a060020a031916600160a060020a03929092169190911790556200113963012435d262001a60565b60078054600160a060020a031916600160a060020a0392909216919091179055565b600a54600160a060020a031681565b600454600160a060020a031681565b600d5460001090565b60006200118e62000d0e565b15156200119a57600080fd5b8585858585620011a962001c1b565b600160a060020a039095168552602085019390935260408085019290925260608401529015156080830152519081900360a001906000f080158015620011f3573d6000803e3d6000fd5b50600160a060020a038781166000908152600c602090815260408083208054600181018255908452828420018054600160a060020a03191686861690811790915581517f23b872dd000000000000000000000000000000000000000000000000000000008152948e1660048601526024850152604484018c90525193945030936323b872dd93606480820194918390030190829087803b1580156200129757600080fd5b505af1158015620012ac573d6000803e3d6000fd5b505050506040513d6020811015620012c357600080fd5b505115156200098757600080fd5b6000805b600160a060020a0383166000908152600c602052604090205482101562000aa757600160a060020a0383166000908152600c602052604090208054839081106200131b57fe5b6000918252602082200154604080517f191655870000000000000000000000000000000000000000000000000000000081523060048201529051600160a060020a039092169350839263191655879260248084019382900301818387803b1580156200138657600080fd5b505af11580156200139b573d6000803e3d6000fd5b505060019093019250620012d59050565b620013b662001179565b15620013c157600080fd5b600454600160a060020a0316331480620013e05750620013e062000d0e565b1515620013ec57600080fd5b60055462000aa790600160a060020a0316848484620017d0565b336000908152600260209081526040808320600160a060020a03861684529091528120546200143c908363ffffffff62001b3916565b336000818152600260209081526040808320600160a060020a0389168085529083529281902085905580519485525191937f8c5be1e5ebec7d5bd14f71427d1e84f3dd0314c0f7b2291e5b200ac8c7c3b925929081900390910190a350600192915050565b600654600160a060020a031681565b600160a060020a03918216600090815260026020908152604080832093909416825291909152205490565b600c60205281600052604060002081815481101515620014f757fe5b600091825260209091200154600160a060020a03169150829050565b600354600160a060020a031681565b6200152c62000d0e565b15156200153857600080fd5b6200154262001179565b156200154d57600080fd5b6200155762001b47565b42600d55565b600954600160a060020a031681565b6000600160a060020a03831615156200158457600080fd5b600160a060020a038416600090815260208190526040902054821115620015aa57600080fd5b600160a060020a0384166000908152600260209081526040808320338452909152902054821115620015db57600080fd5b600160a060020a03841660009081526020819052604090205462001606908363ffffffff620018f516565b600160a060020a0380861660009081526020819052604080822093909355908516815220546200163d908363ffffffff62001b3916565b600160a060020a0380851660009081526020818152604080832094909455918716815260028252828120338252909152205462001681908363ffffffff620018f516565b600160a060020a038086166000818152600260209081526040808320338452825291829020949094558051868152905192871693919260008051602062003189833981519152929181900390910190a35060019392505050565b600160a060020a0382166000908152602081905260409020548111156200170157600080fd5b600160a060020a0382166000908152602081905260409020546200172c908263ffffffff620018f516565b600160a060020a0383166000908152602081905260409020556001546200175a908263ffffffff620018f516565b600155604080518281529051600160a060020a038416917fcc16f5dbb4873280815c1ee09dbd06736cffcc184412cf7a71a0fdb75d397ca5919081900360200190a2604080518281529051600091600160a060020a03851691600080516020620031898339815191529181900360200190a35050565b60008282620017de62001c2c565b600160a060020a0390921682526020820152604080519182900301906000f08015801562001810573d6000803e3d6000fd5b50600160a060020a038481166000908152600c602090815260408083208054600181018255908452828420018054600160a060020a03191686861690811790915581517f23b872dd000000000000000000000000000000000000000000000000000000008152948b1660048601526024850152604484018990525193945030936323b872dd93606480820194918390030190829087803b158015620018b457600080fd5b505af1158015620018c9573d6000803e3d6000fd5b505050506040513d6020811015620018e057600080fd5b50511515620018ee57600080fd5b5050505050565b6000828211156200190257fe5b50900390565b6000600160a060020a03831615156200192057600080fd5b336000908152602081905260409020548211156200193d57600080fd5b336000908152602081905260409020546200195f908363ffffffff620018f516565b3360009081526020819052604080822092909255600160a060020a0385168152205462001993908363ffffffff62001b3916565b600160a060020a03841660008181526020818152604091829020939093558051858152905191923392600080516020620031898339815191529281900390910190a350600192915050565b6000620019ea62000d0e565b1515620019f657600080fd5b5060015463ffffffff808416670de0b6b3a7640000029162001a1b91839062001b3916565b600155600160a060020a0382166000818152602081815260408083208590558051858152905160008051602062003189833981519152929181900390910190a3505050565b60008062001a6d62000d0e565b151562001a7957600080fd5b3062001a8462001c3d565b600160a060020a03909116815260405190819003602001906000f08015801562001ab2573d6000803e3d6000fd5b50905062001ac18382620019de565b80600160a060020a03166312d60f866040518163ffffffff167c0100000000000000000000000000000000000000000000000000000000028152600401600060405180830381600087803b15801562001b1957600080fd5b505af115801562001b2e573d6000803e3d6000fd5b509295945050505050565b81810182811015620008cc57fe5b62001b5162000d0e565b151562001b5d57600080fd5b62001b6c6301c9c38062001a60565b60088054600160a060020a031916600160a060020a039290921691909117905562001b9b63016e360062001a60565b60098054600160a060020a031916600160a060020a039290921691909117905562001bca6308f0d18062001a60565b600a8054600160a060020a031916600160a060020a039290921691909117905562001bf96307270e0062001a60565b600b8054600160a060020a031916600160a060020a0392909216919091179055565b6040516108fb8062001c4f83390190565b6040516109a5806200254a83390190565b60405161029a8062002eef833901905600608060405234801561001057600080fd5b5060405160a0806108fb8339810160409081528151602083015191830151606084015160809094015160008054600160a060020a0319163317905591939091600160a060020a038516151561006457600080fd5b8183111561007157600080fd5b60018054600160a060020a031916600160a060020a0387161790556005805460ff191682151517905560048290556100b684846401000000006100c581026107011704565b600255505050600355506100d8565b818101828110156100d257fe5b92915050565b610814806100e76000396000f3006080604052600436106100ab5763ffffffff60e060020a6000350416630fb5a6b481146100b057806313d033c0146100d75780631726cbc8146100ec578063191655871461010d578063384711cc1461013057806338af3eed1461015157806374a8f10314610182578063872a7810146101a35780638da5cb5b146101cc5780639852595c146101e1578063be9a655514610202578063f2fde38b14610217578063fa01dc0614610238575b600080fd5b3480156100bc57600080fd5b506100c5610259565b60408051918252519081900360200190f35b3480156100e357600080fd5b506100c561025f565b3480156100f857600080fd5b506100c5600160a060020a0360043516610265565b34801561011957600080fd5b5061012e600160a060020a036004351661029d565b005b34801561013c57600080fd5b506100c5600160a060020a0360043516610349565b34801561015d57600080fd5b506101666104a0565b60408051600160a060020a039092168252519081900360200190f35b34801561018e57600080fd5b5061012e600160a060020a03600435166104af565b3480156101af57600080fd5b506101b8610616565b604080519115158252519081900360200190f35b3480156101d857600080fd5b5061016661061f565b3480156101ed57600080fd5b506100c5600160a060020a036004351661062e565b34801561020e57600080fd5b506100c5610640565b34801561022357600080fd5b5061012e600160a060020a0360043516610646565b34801561024457600080fd5b506101b8600160a060020a03600435166106da565b60045481565b60025481565b600160a060020a0381166000908152600660205260408120546102979061028b84610349565b9063ffffffff6106ef16565b92915050565b60006102a882610265565b9050600081116102b757600080fd5b600160a060020a0382166000908152600660205260409020546102e0908263ffffffff61070116565b600160a060020a038084166000818152600660205260409020929092556001546103129291168363ffffffff61070e16565b6040805182815290517ffb81f9b30d73d830c3544b34d827c08142579ee75710b490bab0b3995468c5659181900360200190a15050565b600080600083600160a060020a03166370a08231306040518263ffffffff1660e060020a0281526004018082600160a060020a0316600160a060020a03168152602001915050602060405180830381600087803b1580156103a957600080fd5b505af11580156103bd573d6000803e3d6000fd5b505050506040513d60208110156103d357600080fd5b5051600160a060020a03851660009081526006602052604090205490925061040290839063ffffffff61070116565b90506002544210156104175760009250610499565b60045460035461042c9163ffffffff61070116565b421015806104525750600160a060020a03841660009081526007602052604090205460ff165b1561045f57809250610499565b61049660045461048a61047d600354426106ef90919063ffffffff16565b849063ffffffff6107aa16565b9063ffffffff6107d316565b92505b5050919050565b600154600160a060020a031681565b6000805481908190600160a060020a031633146104cb57600080fd5b60055460ff1615156104dc57600080fd5b600160a060020a03841660009081526007602052604090205460ff161561050257600080fd5b604080517f70a082310000000000000000000000000000000000000000000000000000000081523060048201529051600160a060020a038616916370a082319160248083019260209291908290030181600087803b15801561056357600080fd5b505af1158015610577573d6000803e3d6000fd5b505050506040513d602081101561058d57600080fd5b5051925061059a84610265565b91506105ac838363ffffffff6106ef16565b600160a060020a038086166000818152600760205260408120805460ff19166001179055549293506105e7929091168363ffffffff61070e16565b6040517f44825a4b2df8acb19ce4e1afba9aa850c8b65cdb7942e2078f27d0b0960efee690600090a150505050565b60055460ff1681565b600054600160a060020a031681565b60066020526000908152604090205481565b60035481565b600054600160a060020a0316331461065d57600080fd5b600160a060020a038116151561067257600080fd5b60008054604051600160a060020a03808516939216917f8be0079c531659141344cd1fd0a4f28419497f9722a3daafe3b4186f6b6457e091a36000805473ffffffffffffffffffffffffffffffffffffffff1916600160a060020a0392909216919091179055565b60076020526000908152604090205460ff1681565b6000828211156106fb57fe5b50900390565b8181018281101561029757fe5b82600160a060020a031663a9059cbb83836040518363ffffffff1660e060020a0281526004018083600160a060020a0316600160a060020a0316815260200182815260200192505050602060405180830381600087803b15801561077157600080fd5b505af1158015610785573d6000803e3d6000fd5b505050506040513d602081101561079b57600080fd5b505115156107a557fe5b505050565b60008215156107bb57506000610297565b508181028183828115156107cb57fe5b041461029757fe5b600081838115156107e057fe5b0493925050505600a165627a7a723058203b912808ba389219e34f80a7eafe3b87073bdb93e2915516f5ef68eee3f7619c0029608060405234801561001057600080fd5b506040516040806109a583398101604052805160209091015160008054600160a060020a031916331781558290828082600160a060020a038516151561005557600080fd5b8183111561006257600080fd5b60018054600160a060020a031916600160a060020a0387161790556005805460ff191682151517905560048290556100a784846401000000006100b981026107b71704565b600255505050600355506100cc915050565b818101828110156100c657fe5b92915050565b6108ca806100db6000396000f3006080604052600436106100ab5763ffffffff60e060020a6000350416630fb5a6b481146100b057806313d033c0146100d75780631726cbc8146100ec578063191655871461010d578063384711cc1461013057806338af3eed1461015157806374a8f10314610182578063872a7810146101a35780638da5cb5b146101cc5780639852595c146101e1578063be9a655514610202578063f2fde38b14610217578063fa01dc0614610238575b600080fd5b3480156100bc57600080fd5b506100c5610259565b60408051918252519081900360200190f35b3480156100e357600080fd5b506100c561025f565b3480156100f857600080fd5b506100c5600160a060020a0360043516610265565b34801561011957600080fd5b5061012e600160a060020a036004351661029d565b005b34801561013c57600080fd5b506100c5600160a060020a0360043516610349565b34801561015d57600080fd5b50610166610556565b60408051600160a060020a039092168252519081900360200190f35b34801561018e57600080fd5b5061012e600160a060020a0360043516610565565b3480156101af57600080fd5b506101b86106cc565b604080519115158252519081900360200190f35b3480156101d857600080fd5b506101666106d5565b3480156101ed57600080fd5b506100c5600160a060020a03600435166106e4565b34801561020e57600080fd5b506100c56106f6565b34801561022357600080fd5b5061012e600160a060020a03600435166106fc565b34801561024457600080fd5b506101b8600160a060020a0360043516610790565b60045481565b60025481565b600160a060020a0381166000908152600660205260408120546102979061028b84610349565b9063ffffffff6107a516565b92915050565b60006102a882610265565b9050600081116102b757600080fd5b600160a060020a0382166000908152600660205260409020546102e0908263ffffffff6107b716565b600160a060020a038084166000818152600660205260409020929092556001546103129291168363ffffffff6107c416565b6040805182815290517ffb81f9b30d73d830c3544b34d827c08142579ee75710b490bab0b3995468c5659181900360200190a15050565b600080600080600085935083600160a060020a031663b8c766b86040518163ffffffff1660e060020a028152600401602060405180830381600087803b15801561039257600080fd5b505af11580156103a6573d6000803e3d6000fd5b505050506040513d60208110156103bc57600080fd5b505115156103cd576000945061054d565b604080517f70a082310000000000000000000000000000000000000000000000000000000081523060048201529051600160a060020a038816916370a082319160248083019260209291908290030181600087803b15801561042e57600080fd5b505af1158015610442573d6000803e3d6000fd5b505050506040513d602081101561045857600080fd5b5051600160a060020a03871660009081526006602052604090205490935061048790849063ffffffff6107b716565b915083600160a060020a03166348a50a546040518163ffffffff1660e060020a028152600401602060405180830381600087803b1580156104c757600080fd5b505af11580156104db573d6000803e3d6000fd5b505050506040513d60208110156104f157600080fd5b5051600454909150610509908263ffffffff6107b716565b42106105175781945061054d565b60045461054a9061053e610531428563ffffffff6107a516565b859063ffffffff61086016565b9063ffffffff61088916565b94505b50505050919050565b600154600160a060020a031681565b6000805481908190600160a060020a0316331461058157600080fd5b60055460ff16151561059257600080fd5b600160a060020a03841660009081526007602052604090205460ff16156105b857600080fd5b604080517f70a082310000000000000000000000000000000000000000000000000000000081523060048201529051600160a060020a038616916370a082319160248083019260209291908290030181600087803b15801561061957600080fd5b505af115801561062d573d6000803e3d6000fd5b505050506040513d602081101561064357600080fd5b5051925061065084610265565b9150610662838363ffffffff6107a516565b600160a060020a038086166000818152600760205260408120805460ff191660011790555492935061069d929091168363ffffffff6107c416565b6040517f44825a4b2df8acb19ce4e1afba9aa850c8b65cdb7942e2078f27d0b0960efee690600090a150505050565b60055460ff1681565b600054600160a060020a031681565b60066020526000908152604090205481565b60035481565b600054600160a060020a0316331461071357600080fd5b600160a060020a038116151561072857600080fd5b60008054604051600160a060020a03808516939216917f8be0079c531659141344cd1fd0a4f28419497f9722a3daafe3b4186f6b6457e091a36000805473ffffffffffffffffffffffffffffffffffffffff1916600160a060020a0392909216919091179055565b60076020526000908152604090205460ff1681565b6000828211156107b157fe5b50900390565b8181018281101561029757fe5b82600160a060020a031663a9059cbb83836040518363ffffffff1660e060020a0281526004018083600160a060020a0316600160a060020a0316815260200182815260200192505050602060405180830381600087803b15801561082757600080fd5b505af115801561083b573d6000803e3d6000fd5b505050506040513d602081101561085157600080fd5b5051151561085b57fe5b505050565b600082151561087157506000610297565b5081810281838281151561088157fe5b041461029757fe5b6000818381151561089657fe5b0493925050505600a165627a7a72305820f24e10526b34c523c34af830cface1708d85be123f7008bbf4d46b664e7b15700029608060405234801561001057600080fd5b5060405160208061029a833981016040525160008054600160a060020a03909216600160a060020a0319909216919091179055610248806100526000396000f30060806040526004361061004b5763ffffffff7c010000000000000000000000000000000000000000000000000000000060003504166312d60f868114610050578063fc0c546a14610067575b600080fd5b34801561005c57600080fd5b506100656100a5565b005b34801561007357600080fd5b5061007c610200565b6040805173ffffffffffffffffffffffffffffffffffffffff9092168252519081900360200190f35b60008054604080517f70a08231000000000000000000000000000000000000000000000000000000008152306004820152905173ffffffffffffffffffffffffffffffffffffffff909216916370a082319160248082019260209290919082900301818787803b15801561011857600080fd5b505af115801561012c573d6000803e3d6000fd5b505050506040513d602081101561014257600080fd5b505190506000811161015357600080fd5b60008054604080517f095ea7b300000000000000000000000000000000000000000000000000000000815273ffffffffffffffffffffffffffffffffffffffff90921660048301819052602483018590529051909263095ea7b392604480820193602093909283900390910190829087803b1580156101d157600080fd5b505af11580156101e5573d6000803e3d6000fd5b505050506040513d60208110156101fb57600080fd5b505050565b60005473ffffffffffffffffffffffffffffffffffffffff16815600a165627a7a723058202600723f1aea217eef9abbb10939326f20541d633cf422340cc20035b92298640029ddf252ad1be2c89b69c2b068fc378daa952ba7f163c4a11628f55a4df523b3efa165627a7a723058203df1c95c6f1a9f988c86b3c17bbdd4d54b765c24aac30e4dd7c872429903ac620029",
  "source": "pragma solidity ^0.4.21;\n\nimport \"openzeppelin-solidity/contracts/token/ERC20/ERC20.sol\";\nimport \"openzeppelin-solidity/contracts/token/ERC20/StandardToken.sol\";\nimport \"openzeppelin-solidity/contracts/token/ERC20/BurnableToken.sol\";\nimport \"openzeppelin-solidity/contracts/token/ERC20/SafeERC20.sol\";\nimport \"openzeppelin-solidity/contracts/token/ERC20/TokenVesting.sol\";\nimport \"./PresaleTokenVesting.sol\";\nimport \"./TokenVault.sol\";\n\n\n/**\n * @title UrbitToken\n * @dev UrbitToken is a contract for the Urbit token sale, creating the\n * tokens and managing the vaults.\n */\ncontract UrbitToken is BurnableToken, StandardToken {\n    string public constant name = \"Urbit Token\"; // solium-disable-line uppercase\n    string public constant symbol = \"URB\"; // solium-disable-line uppercase\n    uint8 public constant decimals = 18; // solium-disable-line uppercase\n    uint256 public constant MAGNITUDE = 10**uint256(decimals);\n\n    /// Maximum tokens to be allocated (600 million)\n    uint256 public constant HARD_CAP = 600000000 * MAGNITUDE;\n\n    /// This address is used to manage the admin functions and allocate vested tokens\n    address public urbitAdminAddress;\n\n    /// This address is used to keep the tokens for sale\n    address public saleTokensAddress;\n\n    /// This vault is used to keep the bonus tokens\n    TokenVault public bonusTokensVault;\n\n    /// This vault is used to keep the bounty and marketing tokens\n    TokenVault public bountyTokensVault;\n\n    /// This vault is used to keep the referral tokens\n    TokenVault public referralTokensVault;\n\n    /// This vault is used to keep the team and founders tokens\n    TokenVault public urbitTeamTokensVault;\n\n    /// This vault is used to keep the advisors tokens\n    TokenVault public advisorsTokensVault;\n\n    /// This vault is used to keep the rewards tokens\n    TokenVault public rewardsTokensVault;\n\n    /// This vault is used to keep the retained tokens\n    TokenVault public retainedTokensVault;\n\n    /// Store the vesting contracts addresses\n    mapping(address => address[]) public vestingsOf;\n\n    /// when the token sale is closed, the trading is open\n    uint256 public saleClosedTimestamp = 0;\n\n    /// Only allowed to execute before the token sale is closed\n    modifier beforeSaleClosed {\n        require(!saleClosed());\n        _;\n    }\n\n    /// Limiting functions to the admins of the token only\n    modifier onlyAdmin {\n        require(senderIsAdmin());\n        _;\n    }\n\n    function UrbitToken(\n        address _urbitAdminAddress,\n        address _saleTokensAddress) public\n    {\n        require(_urbitAdminAddress != address(0));\n        require(_saleTokensAddress != address(0));\n\n        urbitAdminAddress = _urbitAdminAddress;\n        saleTokensAddress = _saleTokensAddress;\n    }\n\n    /// @dev allows the admin to assign a new admin\n    function changeAdmin(address _newUrbitAdminAddress) external onlyAdmin {\n        require(_newUrbitAdminAddress != address(0));\n        urbitAdminAddress = _newUrbitAdminAddress;\n    }\n\n    /// @dev creates the tokens needed for sale\n    function createSaleTokens() external onlyAdmin beforeSaleClosed {\n        require(bonusTokensVault == address(0));\n        require(bountyTokensVault == address(0));\n        require(referralTokensVault == address(0));\n\n        /// Maximum tokens to be allocated on the sale\n        /// 191,502,887 URB\n        createTokens(191502887, saleTokensAddress);\n\n        /// Bonus tokens - 41,346,823 URB\n        bonusTokensVault = createTokenVault(41346823);\n\n        /// Bounty tokens - 24M URB\n        bountyTokensVault = createTokenVault(24000000);\n\n        /// Referral tokens - 19,150,290 URB\n        referralTokensVault = createTokenVault(19150290);\n    }\n\n    /// @dev Close the token sale\n    function closeSale() external onlyAdmin beforeSaleClosed {\n        createAwardTokens();\n        saleClosedTimestamp = block.timestamp; // solium-disable-line security/no-block-members\n    }\n\n    /// @dev Once the token sale is closed and tokens are distributed,\n    /// burn the remaining unsold, undistributed tokens\n    function burnUnsoldTokens() external onlyAdmin {\n        require(saleClosed());\n        _burn(saleTokensAddress, balances[saleTokensAddress]);\n        _burn(bonusTokensVault, balances[bonusTokensVault]);\n        _burn(bountyTokensVault, balances[bountyTokensVault]);\n        _burn(referralTokensVault, balances[referralTokensVault]);\n    }\n\n    function lockBonusTokens(uint256 _tokensAmount, address _beneficiary, uint256 _duration) external beforeSaleClosed {\n        require(msg.sender == saleTokensAddress || senderIsAdmin());\n        _presaleLock(bonusTokensVault, _tokensAmount, _beneficiary, _duration);\n    }\n\n    function lockBountyTokens(uint256 _tokensAmount, address _beneficiary, uint256 _duration) external beforeSaleClosed {\n        require(msg.sender == saleTokensAddress || senderIsAdmin());\n        _presaleLock(bountyTokensVault, _tokensAmount, _beneficiary, _duration);\n    }\n\n    function lockReferralTokens(uint256 _tokensAmount, address _beneficiary, uint256 _duration) external beforeSaleClosed {\n        require(msg.sender == saleTokensAddress || senderIsAdmin());\n        _presaleLock(referralTokensVault, _tokensAmount, _beneficiary, _duration);\n    }\n\n    /// @dev Shorter version of vest tokens (lock for a single whole period)\n    function lockTokens(address _fromVault, uint256 _tokensAmount, address _beneficiary, uint256 _unlockTime) external onlyAdmin {\n        this.vestTokens(_fromVault, _tokensAmount, _beneficiary, _unlockTime, 0, 0, false); // solium-disable-line arg-overflow\n    }\n\n    /// @dev Vest tokens\n    function vestTokens(\n        address _fromVault,\n        uint256 _tokensAmount,\n        address _beneficiary,\n        uint256 _start,\n        uint256 _cliff,\n        uint256 _duration,\n        bool _revocable)\n        external onlyAdmin\n    {\n        TokenVesting vesting = new TokenVesting(_beneficiary, _start, _cliff, _duration, _revocable);\n        vestingsOf[_beneficiary].push(address(vesting));\n\n        require(this.transferFrom(_fromVault, vesting, _tokensAmount));\n    }\n\n    /// @dev releases vested tokens for the caller's own address\n    function releaseVestedTokens() external {\n        this.releaseVestedTokensFor(msg.sender);\n    }\n\n    /// @dev releases vested tokens for the specified address.\n    /// Can be called by any account for any address.\n    function releaseVestedTokensFor(address _owner) external {\n        for (uint i = 0; i < vestingsOf[_owner].length; i++) {\n            TokenVesting tv = TokenVesting(vestingsOf[_owner][i]);\n            tv.release(ERC20Basic(address(this)));\n        }\n    }\n\n    /// @dev returns whether the sender is admin (or the contract itself)\n    function senderIsAdmin() public view returns (bool) {\n        return (msg.sender == urbitAdminAddress || msg.sender == address(this));\n    }\n\n    /// @dev The sale is closed when the saleClosedTimestamp is set.\n    function saleClosed() public view returns (bool) {\n        return (saleClosedTimestamp > 0);\n    }\n\n    /// @dev check the locked balance for an address\n    function lockedBalanceOf(address _owner) public view returns (uint256) {\n        uint256 result = 0;\n        for (uint i = 0; i < vestingsOf[_owner].length; i++) {\n            result += balances[vestingsOf[_owner][i]];\n        }\n        return result;\n    }\n\n    /// @dev check the locked but releasable balance for an address\n    function releasableBalanceOf(address _owner) public view returns (uint256) {\n        uint256 result = 0;\n        for (uint i = 0; i < vestingsOf[_owner].length; i++) {\n            result += TokenVesting(vestingsOf[_owner][i]).releasableAmount(this);\n        }\n        return result;\n    }\n\n    /// @dev get the number of TokenVesting contracts for an address\n    function vestingCountOf(address _owner) public view returns (uint) {\n        return vestingsOf[_owner].length;\n    }\n\n    /// @dev get the specified TokenVesting contract address for an address\n    function vestingOf(address _owner, uint _index) public view returns (address) {\n        return vestingsOf[_owner][_index];\n    }\n\n    /// @dev Trading is limited before the sale is closed\n    function transferFrom(address _from, address _to, uint256 _value) public returns (bool) {\n        if (saleClosed() || msg.sender == saleTokensAddress || senderIsAdmin()) {\n            return super.transferFrom(_from, _to, _value);\n        }\n        return false;\n    }\n\n    /// @dev Trading is limited before the sale is closed\n    function transfer(address _to, uint256 _value) public returns (bool) {\n        if (saleClosed() || msg.sender == saleTokensAddress || senderIsAdmin()) {\n            return super.transfer(_to, _value);\n        }\n        return false;\n    }\n\n    /// @dev Grant tokens which begin vesting upon close of sale.\n    function _presaleLock(TokenVault _fromVault, uint256 _tokensAmount, address _beneficiary, uint256 _duration) internal {\n        PresaleTokenVesting vesting = new PresaleTokenVesting(_beneficiary, _duration);\n        vestingsOf[_beneficiary].push(address(vesting));\n\n        require(this.transferFrom(_fromVault, vesting, _tokensAmount));\n    }\n\n    // @dev create specified number of toekns and transfer to destination\n    function createTokens(uint32 count, address destination) internal onlyAdmin {\n        uint256 tokens = count * MAGNITUDE;\n        totalSupply_ = totalSupply_.add(tokens);\n        balances[destination] = tokens;\n        emit Transfer(0x0, destination, tokens);\n    }\n\n    /// @dev Create a TokenVault and fill with the specified newly minted tokens\n    function createTokenVault(uint32 count) internal onlyAdmin returns (TokenVault) {\n        TokenVault tokenVault = new TokenVault(ERC20(this));\n        createTokens(count, tokenVault);\n        tokenVault.fillUpAllowance();\n        return tokenVault;\n    }\n\n    /// @dev Creates the tokens awarded after the sale is closed\n    function createAwardTokens() internal onlyAdmin {\n        /// Team tokens - 30M URB\n        urbitTeamTokensVault = createTokenVault(30000000);\n\n        /// Advisors tokens - 24M URB\n        advisorsTokensVault = createTokenVault(24000000);\n\n        /// Rewards tokens - 150M URB\n        rewardsTokensVault = createTokenVault(150000000);\n\n        /// Retained tokens - 120M URB\n        retainedTokensVault = createTokenVault(120000000);\n    }\n}\n",
  "sourcePath": "/home/cleduc/src/urbit/contracts/UrbitToken.sol",
  "compiler": {
    "name": "solc",
    "version": "0.4.24+commit.e67f0147.Emscripten.clang"
  },
  "schemaVersion": "2.0.1",
  "updatedAt": "2018-07-02T16:15:37.177Z"
}